:020000040800F2
:1000000068080020A9010008AD010008AF01000840
:10001000B1010008B3010008B501000800000000AC
:10002000000000000000000000000000B701000810
:10003000B901000800000000BB010008BD01000874
:10004000BF010008BF010008BF010008BF01000890
:10005000BF010008BF010008BF010008BF01000880
:10006000BF010008BF010008BF010008BF01000870
:10007000BF010008BF010008BF010008BF01000860
:10008000BF010008BF010008BF010008BF01000850
:10009000BF010008BF010008BF010008BF01000840
:1000A000BF010008BF010008BF010008BF01000830
:1000B000BF010008BF010008BF010008BF01000820
:1000C000BF010008BF010008BF010008BF01000810
:1000D000BF010008DB050008BF010008BF010008E0
:1000E000BF010008BF010008BF01000800F002F8CE
:1000F00000F04AF80AA090E8000C82448344AAF178
:100100000107DA4501D100F03FF8AFF2090EBAE875
:100110000F0013F0010F18BFFB1A43F0010318473B
:10012000EC8500000C860000103A24BF78C878C126
:10013000FAD8520724BF30C830C144BF04680C60ED
:10014000704700000023002400250026103A28BF35
:1001500078C1FBD8520728BF30C148BF0B60704739
:10016000662907F04A83642904F0D8850020704787
:100170001FB505F063F904000020002106F074FAB1
:10018000E0601FBD10B510BD05F09CFA1146FFF7E9
:10019000EFFF00F015F905F0BAFA03B4FFF7F2FF2C
:1001A00003BC00F0BFF9000008480047FEE7FEE787
:1001B000FEE7FEE7FEE7FEE7FEE7FEE7FEE7FEE717
:1001C00003480449044A054B70470000ED0000084D
:1001D00068020020680800206804002068040020ED
:1001E0000CB50020019000906C48006840F480300D
:1001F0006A49086000BF6948006800F40030009058
:100200000198401C0190009818B90198B0F5A06FB2
:10021000F1D16248006800F4003010B10120009074
:1002200001E0002000900098012843D15C4800685C
:1002300040F010005A4908600846006820F00300AA
:1002400008600846006840F00200086053484068B3
:10025000524948600846406848600846406840F493
:10026000806048600846406820F47C10486008467A
:10027000406840F4E81048600846006840F080702C
:10028000086000BF4548006800F000700028F9D001
:100290004248406820F003004049486008464068F2
:1002A00040F00200486000BF3C48406800F00C008D
:1002B0000828F9D10CBD10B5FFF792FF10BD10B59D
:1002C0003648006840F0010034490860084640683C
:1002D00034490840314948600846006832490840BE
:1002E0002E4908600846006820F48020086008460F
:1002F000406820F4FE0048604FF41F008860FFF75C
:10030000DAFF4FF000602949086010BD10B50021E8
:1003100000200022214B5B6803F00C0121B104296D
:1003200006D0082928D107E0214B224C236027E082
:100330001F4B204C236023E0184B5B6803F47010C4
:10034000164B5B6803F48032022303EB904022B922
:10035000194B4343174C23600DE0104B5B6803F4CB
:10036000003323B1144B4343124C236003E0104B82
:100370004343104C236003E00D4B0E4C236000BF41
:1003800000BF064B5B68C3F303130C4CE15C094BE5
:100390001B68CB40074C236010BD000000100240DA
:1003A000002002400000FFF8FFFFF6FE08ED00E02D
:1003B00000127A000000002000093D000400002027
:1003C000FFF77DFF00F044F84FF4165000F0B9F845
:1003D00000F048F903F0A3FB03F0B5FB1FE003F0C6
:1003E00013FC0F48006806F069FE044622460B46DF
:1003F0000CA004F053FC0E48006806F05FFE0446B3
:1004000022460B460BA004F049FC0D48006806F09C
:1004100055FE044622460B460AA004F03FFCDEE7E8
:1004200060000020526F6C6C3A25662020000000AE
:100430005C00002050697463683A25662020000043
:10044000640000205961773A25660D0A000000001B
:1004500010B56FF0040003F058FE2E4800682E49D6
:10046000B0FBF1F02D4908700846007800EB400120
:10047000C1EBC0104FF6FF7101EAC00028490880A7
:1004800010BD0146254A12784A434FF0E0235A61D5
:1004900000229A611A46126942F001021A6100BFF5
:1004A0004FF0E022106900F001021AB100F480322E
:1004B000002AF5D04FF0E022126922F001024FF03D
:1004C000E0231A6100229A6170470146144A12889B
:1004D0004A434FF0E0235A6100229A611A4612699A
:1004E00042F001021A6100BF4FF0E022106900F0F3
:1004F00001021AB100F48032002AF5D04FF0E02258
:10050000126922F001024FF0E0231A6100229A6181
:10051000704700000000002000127A001400002044
:1005200016000020014600BF704700BF494A1288EC
:1005300002F04002002AF9D0C2B2464B1B1D1A80BD
:10054000704710B586B00446012144F2040004F05F
:1005500017F94FF40070ADF8140003208DF8160061
:1005600018208DF8170005A93B4803F04DFE4FF405
:100570008060ADF8140004208DF8170005A93648F6
:1005800003F042FE25208DF8000003208DF80100C5
:100590008DF8020001208DF80300684603F06BFD22
:1005A00001940020ADF80800ADF80A00ADF80C0089
:1005B000ADF810000C20ADF80E0001A9254804F09C
:1005C00086F9012240F22551224804F018FA01214F
:1005D000204804F008FA06B010BD10B540F22551CD
:1005E0001C4804F0F1FA10B31A4804F06DFAC4B2D2
:1005F0001A48008800F40040C8B91848008800F480
:10060000804060B10A2C03D000201449088020E00B
:100610001248008840F400401049088019E00D2C71
:1006200006D10E48008840F480400C49088010E054
:100630000A480088C0F30D0009490C540748008897
:10064000401C0649088008460088C72801DD0020B4
:10065000088010BD00380140000801401C00002047
:100660009C00002008B50121042004F089F84FF413
:100670001060ADF8000010208DF8030003208DF805
:1006800002006946F74803F0BFFD08BD10B5F54804
:10069000001D006820F00F00F249091D086008469F
:1006A000006840F0030008600120EF490860EF484F
:1006B000D0F8200108B9002010BD0120EA490C3112
:1006C0000860FFF7DEFE0020E849C1F8A001E64817
:1006D0008038006808B10020EEE70120FFF7D1FE66
:1006E0000020E1490C3108600120E5E710B5DD4844
:1006F000001D006820F00F00DA49091D0860084657
:10070000006840F0030008600020D7490C31086001
:10071000D649C1F8A0010120FFF7B3FE0120D2495C
:100720000C310860D149C1F8A001FFF7AAFE10BD45
:1007300010B50024CB48001D006820F00F00C94907
:10074000091D08600846006840F0080008600120A4
:10075000C5490860FFF795FE0120C449C1F8AC0106
:10076000FFF78FFE0AE0601CC4B2322C03DDFFF7F6
:10077000BDFF002010BD0120FFF783FEBA4880387E
:1007800000680028EFD1B8490C3108600120F1E77A
:1007900010B50020B4490C310860B248001D006853
:1007A00020F00F00AF49091D08600846006840F0BE
:1007B000030008600020AD49C1F8A0010120FFF747
:1007C00060FE0120A8490C310860FFF75AFE0020A6
:1007D000A649C1F8AC0110BD10B50020A2490C31EA
:1007E0000860A048001D006820F00F009D49091D09
:1007F00008600846006840F00300086001209B493B
:10080000C1F8A001FFF73DFE012097490C310860B7
:10081000FFF737FE00209549C1F8AC0110BD70B557
:1008200004469048001D006820F00F008D49091D06
:1008300008600846006840F00300086000208A490C
:100840000C310860002516E0E00987490860600661
:10085000040E0120FFF715FE01208449C1F8AC0108
:10086000FFF70FFE002080490C3108600120FFF7E0
:1008700008FE681CC5B2082DE6DB70BD2DE9F0410D
:1008800005460E4617469846FFF700FF10B90120AF
:10089000BDE8F0816906080EFFF7C1FFFFF748FFCA
:1008A00018B9FFF723FF0120F2E73046FFF7B7FF43
:1008B000FFF73EFF00240BE018F80400FFF7AFFF3E
:1008C000FFF736FF18B9FFF711FF0020E0E7641CBF
:1008D000BC42F1DBFFF70AFF0020D9E770B50546FF
:1008E00000246048001D006820F00F005D49091DCC
:1008F00008600846006840F008000860002617E01D
:10090000002059490C3108600220FFF7BAFD012090
:100910005649C1F8AC016006040E5348803800689F
:1009200008B1601CC4B20220FFF7ABFD701CC6B258
:10093000082EE5DB15B1FFF72BFF01E0FFF74CFFB9
:10094000204670BD2DE9F04106460F4614461D466F
:10095000FFF79CFE10B90120BDE8F0817106080E7A
:10096000FFF75DFFFFF7E4FE18B9FFF7BFFE0120B8
:10097000F2E73846FFF753FFFFF7DAFEFFF786FE90
:10098000012101EB4601C8B2FFF749FFFFF7D0FE96
:100990000DE0012C04D10020FFF7A0FF287003E038
:1009A0000120FFF79BFF28706D1C601EC4B2002C55
:1009B000EFD1FFF79BFE0020CEE770B505460E464F
:1009C0000024FFF763FE2846FFF729FF641CFFF7AA
:1009D000AFFE3046FFF723FF641CFFF7A9FEFFF7C9
:1009E00055FE691CC8B2FFF71AFF641CFFF7A0FE92
:1009F0000020FFF773FF0446FFF778FE204670BD26
:100A00002DE9F0410746884615461E460024FFF7AB
:100A10003DFE3846FFF703FFFFF78AFE4046FFF72B
:100A2000FEFEFFF785FEFFF731FE791CC8B2FFF727
:100A3000F6FEFFF77DFE00BF0DE0681EA04204D069
:100A40000120FFF74BFF305503E00020FFF746FF82
:100A50003055601CC4B2AC42EFDBFFF747FE2046C6
:100A6000BDE8F08100080140A001214200002142C0
:100A70002DE9F04180460D4616461F460024FFF73B
:100A800005FE4046FFF7CBFEFFF752FE2846FFF774
:100A9000C6FEFFF74DFE00BF06E0385DFFF7BFFE64
:100AA000FFF746FE601CC4B2B442F6DBFFF71EFE41
:100AB0000120BDE8F08170B505460E46144631466A
:100AC0002846FFF77AFF2070012070BD37B5044635
:100AD0000D4602AB012229462046FFF7C9FF3EBD65
:100AE0002DE9F8430746884614461D46089E6A4687
:100AF00041463846FFF7DFFF28B3601CFF2101FAAB
:100B000000F0C4F108012944491EFF220A411043A4
:100B100000F0FF09C5F1080006FA00F0C6B2C4F102
:100B2000070006419DF8000000EA090000909DF8CA
:100B30000000304300909DF8002041463846FFF702
:100B4000C5FFBDE8F8830020FBE7F8B506460F4671
:100B500014461D466A4639463046FFF7ACFF2DB1B4
:100B60000120A0409DF80010084305E00120A040AE
:100B70009DF8001021EA0000C0B200909DF800200E
:100B800039463046FFF7A2FFF8BD000038B50446ED
:100B9000FB4890F82400C0B114B10220009001E09D
:100BA00000200090F64A1268D17BF54A526810780E
:100BB0006B460122FFF762FE10B14FF0FF3038BDE7
:100BC0009DF80010EE48417423E0ED48807A10B99A
:100BD0004FF0FF30F3E724B1E948407C08B1002032
:100BE000EDE714B10120009001E000200090E44AFC
:100BF0001268D17BE24A526810786B460122FFF7F7
:100C00003DFE10B14FF0FF30D9E79DF80010DC48F1
:100C100041740020D3E738B5002419E0D8480068B3
:100C2000C07AA04204D0D6480068407DA04200D1DE
:100C30000CE0D349496808786B4601222146FFF74A
:100C400081FE10B14FF0FF3038BD00BF601CC4B250
:100C5000CB4840680079A042E0DC0020F4E770B5A2
:100C600004460D46C6480068C07AA04204D0C44875
:100C70000068407DA04202D14FF0FF3070BDC048F7
:100C800040680079A04202DC4FF0FF30F6E7BC4933
:100C9000496808782B4601222146FFF753FEEDE70D
:100CA00038B50446B64890F82300A04201D1002090
:100CB00038BD14B13020009001E000200090B04811
:100CC000807C20B19DF8000040F002000090AC480C
:100CD00090F8220020B19DF8000040F080000090C4
:100CE000A74A1268117DA64A526810786B46012205
:100CF000FFF7C4FD10B14FF0FF30D9E7A04880F8EE
:100D000023400020D4E738B5044604F0700010B149
:100D10000120009005E014B10020009001E0402087
:100D20000090974A1268917C954A526810786B46F9
:100D30000122FFF7A3FD20B1002191488172481ED6
:100D400038BD9DF8000020F040018D48017300205F
:100D5000009004F0400020B99DF8000040F004002D
:100D6000009004F0200020B99DF8000040F002003F
:100D7000009004F0100020B99DF8000040F0010040
:100D8000009004F0080020B99DF8000040F0380001
:100D900000907B4A1268D17C794A526810786B4681
:100DA0000122FFF76BFD20B1002175488172481EBA
:100DB000C6E724B1082C02D00020FFF771FF70486D
:100DC0008472002101753220FFF77FFB0020B7E716
:100DD00038B504466A48807CA04201D1002038BD65
:100DE000002C46D0664A12681179654A526810781C
:100DF0006B460122FFF7A6FD10B14FF0FF30EEE782
:100E00009DF8000020F0200000905D4A12681179E2
:100E10005B4A526810786B460122FFF72FFD10B134
:100E20004FF0FF30DBE70320FFF74FFB022000907D
:100E3000534890F8220020B19DF8000040F0800057
:100E400000904F4890F8230020B19DF8000040F03A
:100E5000300000904A4A1268117D494A5268107861
:100E60006B460122FFF70AFD002851D04FF0FF30FA
:100E7000B5E7434A12681179414A526810786B46C7
:100E80000122FFF75FFD10B14FF0FF30A7E73C48AC
:100E9000807A00F0010028B19DF8000040F02000A9
:100EA000009004E09DF8000020F020000090344AFB
:100EB00012681179324A526810786B460122FFF7A6
:100EC000DDFC10B14FF0FF3089E70320FFF7FDFA9A
:100ED0002B4890F8220010B18020009001E0002003
:100EE0000090274890F8230020B19DF8000040F0C2
:100EF00030000090224A1268117D214A5268107811
:100F00006B460122FFF7BAFC10B14FF0FF3066E7E5
:100F10001B488474002062E708B51948807A10B92C
:100F20004FF0FF3008BD00200090154A1268D17BB9
:100F3000134A526810786B460122FFF79FFC10B1EC
:100F40004FF0FF30EEE70E4A126851790C4A5268B2
:100F500010786B460122FFF791FC10B14FF0FF3083
:100F6000E0E7074A12681179054A526810786B4623
:100F70000122FFF783FC28B14FF0FF30D2E70000D9
:100F800020000020F74890F82400002850D00C20C2
:100F90000090F44A12681179F24A526810786B4650
:100FA0000122FFF76BFC10B14FF0FF30BAE7C02011
:100FB0000090EC48807A00F0010020B19DF800001C
:100FC00040F020000090E74A12681179E54A526823
:100FD00010786B460122FFF751FC10B14FF0FF3043
:100FE000A0E7E048407C10B10220009001E0002022
:100FF0000090DC4A1268D17BDA4A526810786B465E
:101000000122FFF73BFC10B14FF0FF308AE70020D0
:101010000090D44A12685179D24A526810786B46CF
:101020000122FFF72BFC002852D04FF0FF3079E768
:1010300004200090CB4A12681179CA4A526810788D
:101040006B460122FFF71AFC10B14FF0FF3069E741
:10105000C448807C20B9C348807A00F0010010B9F0
:101060004020009001E060200090BE4A1268117993
:10107000BC4A526810786B460122FFF7FFFB10B1A3
:101080004FF0FF304EE7B748407C10B10120009090
:1010900001E000200090B34A1268D17BB14A526847
:1010A00010786B460122FFF7E9FB10B14FF0FF30DB
:1010B00038E7AC4A12685179AA4A52681078A94BAD
:1010C00010330122FFF7DAFB10B14FF0FF3029E7B0
:1010D000002027E770B50446002624F00104A1484B
:1010E00090F8240008B1002070BD9E48807A10B9A5
:1010F0004FF0FF30F8E79B48057C807A2040994903
:1011000008740846007CA04202D04FF0FF3600E091
:10111000002614B99348007D18B10120FFF736FD71
:1011200002E00020FFF732FD3CB1FFF7F5FE20B1F1
:101130008C4805744FF0FF30D6E73046D4E738B519
:1011400004468848807A10B94FF0FF3038BDBC2C77
:1011500002DB0120009015E0622C02DB02200090EF
:1011600010E02A2C02DB032000900BE0142C02DBA1
:101170000420009006E00A2C02DB0520009001E02C
:10118000062000907748C07A9DF80010884201D16F
:101190000020DBE7734A12689178724A526810782F
:1011A0006B460122FFF76AFB10B14FF0FF30CDE72D
:1011B0009DF800106B48C1720020C7E738B504469F
:1011C000282C02DD4FF0FF3038BDDCB90020FFF7DE
:1011D00067FD00208DF8000007208DF80100614AAE
:1011E0001268917C5F4A526810786B460222FFF7C2
:1011F00045FB10B14FF0FF30E6E70021594801757B
:101200000020E1E70120FFF74BFD20208DF80000D2
:10121000012C06D100208DF801000520FFF78FFF7B
:1012200017E0052C06DC01208DF801000520FFF7F2
:1012300086FF0EE0142C06DC02208DF801000A2047
:10124000FFF77DFF05E003208DF801001420FFF774
:1012500076FF9DF80100072101EB8010C0B28DF8E8
:101260000100404A1268917C3E4A526810786B46F1
:101270000222FFF703FB10B14FF0FF30A4E7082173
:101280003848817200210173012101750020FFF7A8
:1012900021FF002098E738B504463248807A10B91B
:1012A0004FF0FF3038BD2F4890F8240010B14FF0B8
:1012B000FF30F7E72B48007D50B134B1282C04DC17
:1012C000E0B2FFF77BFF0020ECE70020FFF776FF9E
:1012D000042C01DA042404E0B4F57A7F01DD4FF434
:1012E0007A744FF47A7090FBF4F0401EC0B2009014
:1012F0001C4A126851781B4A526810786B460122CA
:10130000FFF7BCFA10B14FF0FF30CBE79DF80000BB
:10131000401C4FF47A7191FBF0F081B21148C18109
:101320000146C9894810FFF70AFF0020BAE738B51F
:1013300004460C48807A10B94FF0FF3038BD022CBB
:1013400006D0042C07D0082C08D0102C0FD10BE0AD
:10135000002000900EE0082000900BE0102000908C
:1013600008E00000200000201820009002E04FF06C
:10137000FF30E3E700BFF948407A9DF80010B0EB7A
:10138000E10F01D10020D9E7F44A1268D179F34A7C
:10139000526810786B460122FFF770FA10B14FF0D7
:1013A000FF30CBE79DF80000C110EC4841720020EF
:1013B000C4E738B50446E948807A10B94FF0FF30E9
:1013C00038BDFA2C09D0B4F5FA7F09D0B4F57A7F8C
:1013D00009D0B4F5FA6F0CD108E0002000900BE0C2
:1013E0000820009008E01020009005E018200090F0
:1013F00002E04FF0FF30E3E700BFD848007A9DF8E5
:101400000010B0EBE10F01D10020D9E7D34A1268F8
:101410009179D24A526810786B460122FFF72EFA72
:1014200010B14FF0FF30CBE79DF80000C010CB4962
:1014300008720020C4E71CB580208DF80000C74A60
:101440001268917CC54A526810786B460122FFF7FA
:1014500015FA10B14FF0FF301CBD6420FFF735F8CE
:1014600000208DF80000BD4A1268917CBB4A52688A
:1014700010786B460122FFF701FA10B14FF0FF30F0
:10148000EAE7B64A1268917DB44A526810786B4612
:101490000622FFF757FA10B14FF0FF30DCE79DF856
:1014A0000500C007400F9DF8031001F0010140EA5C
:1014B00041009DF8011001F0010140EA010494B1DE
:1014C000012C03D10121A548C17431E0022C03D1C4
:1014D0000021A248C1742BE02146A1A003F0DEFB4D
:1014E0004FF0FF30B8E79D4A1268D1789B4A5268A6
:1014F00010786B460122FFF725FA10B14FF0FF304C
:10150000AAE79DF8000000F00F042CB99E4803F0F4
:10151000C5FB4FF0FF309FE7042C06D19BA003F0E2
:10152000BDFB01218D48C17402E000218B48C174CC
:10153000FF218A488172FF2088490872FF2187486D
:101540004172C1724FF6FF71C181FF210174817434
:101550000121017380F82210002180F823104175C9
:1015600001751630016041608160163880F82410E2
:1015700080F82510C1844FF4FA60FFF71AFF10B10C
:101580004FF0FF3068E70220FFF7D1FE10B14FF0B7
:10159000FF3061E72A20FFF7D2FD10B14FF0FF3096
:1015A0005AE73220FFF777FE10B14FF0FF3053E7D4
:1015B0000020FFF78FFD10B14FF0FF304CE7002007
:1015C000FFF706FC10B14FF0FF3045E70020FFF7B2
:1015D0009AFB002040E770477CB504460D465F4803
:1015E000807A00F0700010B94FF0FF307CBD5B4A8C
:1015F0001268117B594A526810786B460622FFF731
:10160000A1F910B14FF0FF30F0E79DF801009DF80F
:10161000001040EA012000B220809DF803009DF8F0
:10162000021040EA012000B260809DF805009DF89C
:10163000041040EA012000B2A08015B12846FFF74F
:10164000CAFF0020D2E77CB504460D464348807AA5
:1016500000F0080010B94FF0FF307CBD3F4A12681F
:10166000517B3E4A526810786B460622FFF76AF9B2
:1016700010B14FF0FF30F0E79DF801009DF8001029
:1016800040EA012000B220809DF803009DF802107E
:1016900040EA012000B260809DF805009DF804102A
:1016A00040EA012000B2A08015B12846FFF793FF61
:1016B0000020D2E72DE9FE4F05460C462748807AE8
:1016C00018B94FF0FF30BDE8FE8F244A1268917BB5
:1016D000224A5268107802AB0222FFF733F910B1A8
:1016E0004FF0FF30EFE79DF809009DF8081040EA41
:1016F000012006B214B12046FFF76DFF1749496873
:10170000C88805F0BFFE154901904968B1F9080085
:1017100005F0A0FE8346304605F09CFE5946009039
:1017200005F0F6FF8246019905F062FD81461F49EA
:1017300005F0F0FC80464FF08F4105F0EBFE0746C8
:1017400005F04CFE28600020BDE710B588B00446C7
:101750001CB94FF0FF3008B010BD29E02000002078
:10176000556E737570706F7274656420736F6674F4
:10177000776172652070726F64756374207265762C
:101780002025642E0A000000BC86000848616C66B3
:101790002073656E736974697669747920706172FB
:1017A0007420666F756E642E0D0A000000000C42F6
:1017B000206830B9606820B9A06810B9002008B06E
:1017C00010BDFA494968087806AB03221146FFF7B5
:1017D000B9F810B14FF0FF30F1E79DF8180008217B
:1017E00001EB201000F00F00ADF800009DF819008B
:1017F00001EB201000F00F00ADF802009DF81A0078
:1018000001EB201000F00F00ADF80400206841004B
:10181000BDF90000403091FBF0F000B2ADF81000CF
:1018200060684100BDF90200403091FBF0F000B269
:10183000ADF81200A0684100BDF90400403091FBF2
:10184000F0F000B2ADF81400D8494968087806AB4A
:1018500006221146FFF776F810B14FF0FF30AEE7E1
:101860009DF819009DF8181040EA012000B2ADF86B
:1018700008009DF81B009DF81A1040EA012000B2F4
:10188000ADF80A009DF81D009DF81C1040EA0120EB
:1018900000B2ADF80C00BDF81000BDF80810084407
:1018A00000B2ADF81000BDF81200BDF80A100844EF
:1018B00000B2ADF81200BDF81400BDF80C100844D9
:1018C00000B2ADF81400BDF81000000A8DF8180041
:1018D000BDF81000C0B28DF81900BDF81200000A62
:1018E0008DF81A00BDF81200C0B28DF81B00BDF8CB
:1018F0001400000A8DF81C00BDF81400C0B28DF869
:101900001D00AA494968087806AB06221146FEF771
:10191000B5FF10B14FF0FF3051E700204FE701460F
:10192000A248007A30B1012807D0022809D0032844
:101930000FD10AE0FA2008800EE04FF4FA70088018
:101940000AE04FF47A70088006E04FF4FA600880ED
:1019500002E00020088000BF00BF00207047014661
:101960009248407A30B1012807D0022808D00328D5
:101970000CD108E0022008700BE00420087008E099
:101980000820087005E01020087002E04FF0FF30DA
:10199000704700BF8548C07C18B108784006000E2B
:1019A00008700020F4E701468048C07A082817D262
:1019B000DFE800F01704070A0D101318BC20088098
:1019C00013E06220088010E02A2008800DE0142037
:1019D00008800AE00A20088007E00520088004E06B
:1019E00000BF00BF0020088000BF00BF002070477C
:1019F00001466E4890F8240010B14FF0FF30704758
:101A00006A48C08908800020F9E701460020088064
:101A1000401E704701464FF0FF3070470146634853
:101A2000007A30B1012807D0022808D003280CD151
:101A300008E05F4808600BE05E48086008E05E4828
:101A4000086005E05D48086002E04FF0FF30704735
:101A500000BF0020FBE701465448407A30B101281E
:101A600008D002280AD0032810D10BE04FF48040A0
:101A700008800EE041F69C7008800AE04FF4805028
:101A8000088006E04FF40060088002E04FF0FF306D
:101A9000704700BF4548C07C10B1088840100880DE
:101AA0000020F5E701464148007C0870002070479F
:101AB00001463E48807A10B10120087001E0002004
:101AC00008700020704738B504463848807A10B94D
:101AD0004FF0FF3038BD354A1268117C334A5268E6
:101AE00010786B460222FEF72DFF10B14FF0FF3049
:101AF000F0E79DF801009DF8001040EA012000B2D7
:101B000020800020E6E72DE9FE4F074688469246F2
:101B10001D46DDF830B000260024244890F824004B
:101B200010B1601EBDE8FE8F002028701F48807A2B
:101B300010B94FF0FF30F5E71C48007C10B94FF0AA
:101B4000FF30EFE71948007C00F0400008B1B01CFE
:101B5000C6B21648007C00F0200008B1B01CC6B226
:101B60001248007C00F0100008B1B01CC6B20F484B
:101B7000007C00F0080008B1B01DC6B20B4A126824
:101B8000917A0A4A526810786B460222FEF7DAFE12
:101B900010B14FF0FF30C5E79DF801009DF800102F
:101BA00040EA0129B1450BDA0020BBE72000002004
:101BB0000000034300008342333303423333834145
:101BC000FC4840684088B9EB600F17DDF94A12689D
:101BD000517CF84A526810786B460122FEF7B2FE3B
:101BE00010B14FF0FF309DE79DF8000000F01000AD
:101BF00020B1FFF791F96FF0010093E75046FFF72E
:101C0000EAFCEC4A1268D17AEA4A526810786B46CC
:101C10003246FEF797FE10B14FF0FF3082E799FB96
:101C2000F6F0401E8BF8000000202870B4422AD045
:101C3000E048007C00F0080028B3601C1DF800009C
:101C40001DF8041040EA012000B2A8F80000E01CD2
:101C50001DF80010A01C1DF8000041EA002000B291
:101C6000A8F80200601D1DF80010201D1DF80000DE
:101C700041EA002000B2A8F80400287840F00800EB
:101C80002870A01D84B2B44213D0CA48007C00F072
:101C9000400070B1601C1DF800001DF8041040EAFF
:101CA000012000B23880287840F040002870A01C45
:101CB00084B2B44213D0BF48007C00F0200070B161
:101CC000601C1DF800001DF8041040EA012000B25D
:101CD0007880287840F020002870A01C84B2B4429C
:101CE00013D0B448007C00F0100070B1601C1DF8E7
:101CF00000001DF8041040EA012000B2B8802878E6
:101D000040F010002870A01C84B200200AE7F8B54B
:101D100004460F461646A74890F8240010B94FF025
:101D2000FF30F8BDA348807A10B94FF0FF30F8E7D4
:101D3000A04A1268917A9F4A526810786B46022234
:101D4000FEF700FE10B14FF0FF30EAE79DF801000A
:101D50009DF8001040EA0125A54203DA002030700A
:101D6000401EDEE7934840684088B5EB600F17DD02
:101D7000904A1268517C8F4A526810786B46012253
:101D8000FEF7E0FD10B14FF0FF30CAE79DF800000C
:101D900000F0100020B1FFF7BFF86FF00100C0E7BE
:101DA000E2B2844B1B68D97A824B5B6818783B4659
:101DB000FEF7C8FD10B14FF0FF30B2E795FBF4F02D
:101DC000401E30700020ACE701467A4880F82210AF
:101DD000002070477CB5054676494968087801AB14
:101DE00004220D21FEF7AEFD08B107207CBD9DF851
:101DF0000700C0F301109DF8041001F0E00140EA73
:101E0000E1008DF800009DF80700C0F381009DF807
:101E1000051001F0E00140EAE1008DF801009DF8B5
:101E2000070000F003009DF8061001F0E00140EA11
:101E3000E1008DF8020000241CE01DF8040018B930
:101E4000002045F8240013E05B4845F8240006E034
:101E500055F82400594905F05DFB45F824001DF8AC
:101E60000400401EC0B20DF804000028F0D100BFED
:101E7000601CC4B2032CE0DB0020B7E72DE9FE4F65
:101E800006460F4600256846FFF7A4FF002442E0FF
:101E900056F8240057F82410A0EB010ABAF1000FFD
:101EA00001DB514601E0CAF10001084605F0D2FA13
:101EB00083464FF08F4105F09BF980465DF8240082
:101EC000002105F057FA16D05DF82410404605F0C1
:101ED0008FF982464FF07E5105F01AFC814629F0B9
:101EE000004A3748416A504605F0E0FB12D2012013
:101EF000A04005430EE03248C169404605F0D6FADD
:101F000005D32F48016A404605F0D0FB02D20120DC
:101F1000A0400543641C032CBADB2846BDE8FE8FB5
:101F20002DE9FC5F06460F460025224949680878DE
:101F300001AB03220D21FEF705FD10B10720BDE81E
:101F4000FC9F9DF8040000F01F008DF804009DF830
:101F5000050000F01F008DF805009DF8060000F058
:101F60001F008DF80600002462E056F8240057F8A0
:101F70002410A0EB010BBBF1000F01DB594601E07F
:101F8000CBF10001084605F065FA4FF08F41009053
:101F900005F02EF9814601A8005DC0B30849086824
:101FA00005F070FA83465946064805F021F9804647
:101FB0000FE00000200000207B14AE3E1D5A843F3D
:101FC0001879000800B04C45FE49404605F0A2FAD9
:101FD000804601A8005D401EC0B201A90855002836
:101FE000F2D14146484605F003F983464FF07E5151
:101FF00005F08EFB82462AF0004BF3488169584673
:1020000005F054FB13D20120A04005430FE0FFE789
:10201000ED480169484605F049FA05D3EA484169A7
:10202000484605F043FB02D20120A0400543641C52
:10203000032C9ADB284682E72DE9F04F87B005464E
:102040000C46914601208DF8100000208DF81100FB
:10205000DE4A1268917CDD4A5268107804AB022295
:10206000FEF70CFC20B14FF0FF3007B0BDE8F08F59
:10207000C820FEF72AFA00208DF81000D34A126813
:10208000D17BD24A5268107804AB0122FEF7F6FBEE
:1020900010B14FF0FF30E8E7CC4A12685179CB4AD3
:1020A0005268107804AB0122FEF7E8FB10B14FF044
:1020B000FF30DAE7C54A1268917CC44A526810784A
:1020C00004AB0122FEF7DAFB10B14FF0FF30CCE792
:1020D000BE4A1268D17DBD4A5268107804AB012215
:1020E000FEF7CCFB10B14FF0FF30BEE7B74A1268E5
:1020F0001179B64A5268107804AB0122FEF7BEFB94
:1021000010B14FF0FF30B0E70C208DF81000AF4A4F
:1021100012681179AD4A5268107804AB0122FEF7BB
:10212000ADFB10B14FF0FF309FE70F20FEF7CDF968
:10213000A648806A407A8DF81000A44A1268917807
:10214000A24A5268107804AB0122FEF797FB10B147
:102150004FF0FF3089E79D48806A007A8DF81000C3
:102160009A4A12685178994A5268107804AB012251
:10217000FEF784FB10B14FF0FF3076E7B9F1000FA6
:1021800007D09248806A807A40F0E0008DF8100015
:1021900004E08E48806A807A8DF810008B4A1268BD
:1021A00091798A4A5268107804AB0122FEF766FBE7
:1021B00010B14FF0FF3058E7B9F1000F07D0834856
:1021C000806AC07A40F0E0008DF8100003E07E489D
:1021D000C07A8DF810007D4A1268D1797B4A526826
:1021E000107804AB0122FEF749FB10B14FF0FF302D
:1021F0003BE7B9F1000F02D0C820FEF766F9402096
:102200008DF81000714A12681179704A526810787E
:1022100004AB0122FEF732FB10B14FF0FF3024E790
:1022200078208DF81000694A12685179674A52681F
:10223000107804AB0122FEF721FB10B14FF0FF3004
:1022400013E761498889FEF740F900208DF81000F6
:102250005E4A126851795D4A5268107804AB0122D7
:10226000FEF70CFB10B14FF0FF30FEE6574A126844
:10227000917A564A5268107804AB0222FEF762FB4C
:1022800010B14FF0FF30F0E69DF811009DF81010EE
:1022900040EA012B0C209BFBF0F0C6B20020A860A6
:1022A00068602860A06060602060824665E0474A00
:1022B0001268D17A454A5268107804AB0C22FEF7B6
:1022C00041FB10B14FF0FF30CFE69DF811009DF8B3
:1022D000101040EA012000B2ADF808009DF813008C
:1022E0009DF8121040EA012000B2ADF80A009DF8F6
:1022F00015009DF8141040EA012000B2ADF80C0062
:10230000BDF90810206808442060BDF90A10606813
:1023100008446060BDF90C10A0680844A0609DF8F6
:1023200017009DF8161040EA012000B2ADF8000039
:102330009DF819009DF8181040EA012000B2ADF890
:1023400002009DF81B009DF81A1040EA012000B21F
:10235000ADF80400BDF90010286808442860BDF9F4
:102360000210686808446860BDF90410A868084451
:10237000A8600AF1010000F0FF0AB24597DB12489D
:10238000D0F800C02868C117090441EA10410704C9
:1023900062460023384602F05CFC32460023CDE959
:1023A000020102F056FC28600748D0F800C06868B7
:1023B000C117090441EA1041070462460023384668
:1023C00006E0000054E3853F187900082000002053
:1023D00002F03FFC32460023CDE9020102F039FC55
:1023E0006860FE48D0F800C0A868C117090441EA37
:1023F0001041070462460023384602F02AFC3246A8
:102400000023CDE9020102F024FCA860F348D0F8D3
:1024100004C02168C817000440EA11480F0462464E
:1024200000233846414602F014FC32460023CDE931
:10243000020102F00EFC2060E848D0F804C0606899
:10244000C117090441EA10410704624600233846D7
:1024500002F0FFFB32460023CDE9020102F0F9FB56
:102460006060DE48D0F804C0A068C117090441EAE2
:102470001041070462460023384602F0EAFB324668
:102480000023CDE9020102F0E4FBA060A06800286F
:1024900004DDA068A0F58030A06003E0A06800F52E
:1024A0008030A0600020E0E538B50446CC4890F8C4
:1024B0002400A04201D1002038BD24B3C84890F8C0
:1024C000250010B94FF0FF30F6E70020FEF75EFB65
:1024D0000020FEF77DFCC249C88CFEF7DCFE002020
:1024E0000090BF49496808786B4601222321FEF716
:1024F000C5F90121BA4880F824100120FEF746FBF7
:10250000FEF70AFD13E00020FEF740FBB448007C14
:102510000090B349496808786B4601222321FEF7F1
:10252000ADF90021AE4880F82410FEF7F5FC00203C
:10253000C2E72DE9F04F8DB083460F4602200C9084
:10254000A74890F8240020B10020FFF7ADFF012636
:1025500000E0002603A8FFF7E2F905A8FFF7FFF95E
:1025600001A8FFF720FA02A8FFF742FA9C4890F86A
:102570000AA004A8FFF796FA002407E000223946D3
:102580005846FFF759FD00B902E0641C022CF5DB48
:1025900000BF022C01D1002528E0002407E0012221
:1025A00006A909A8FFF748FD00B902E0641C022C47
:1025B000F5DB00BF022C01D1002517E006A9384643
:1025C000FFF75CFC00F0FF0809A95846FFF7A8FCDC
:1025D00000F0FF090025B9F1000F01D145F0010518
:1025E000B8F1000F01D145F0020500BFFF207C4982
:1025F0000872FF217A484172C1724FF6FF71C181A2
:10260000FF218172017401210173BDF80C00FEF7F6
:10261000D0FE9DF81400FEF78AFEBDF80400FEF718
:102620008EFDBDF80800FEF736FE5046FEF76BFB48
:102630009DF81000FEF74EFD16B10120FFF734FFA4
:1026400028460DB0BDE8F08FF8B504460D46164695
:1026500016B94FF0FF30F8BD6148807A10B94FF0DD
:10266000FF30F8E720128DF80000E0B28DF801008D
:102670009DF8010028445A4949684989884202DD89
:102680004FF0FF30E7E7564A1268117E544A52680D
:1026900010786B460222FEF7F1F810B14FF0FF30D0
:1026A000D9E7EAB24E4B1B68597D4D4B5B681878F1
:1026B0003346FEF7E3F810B14FF0FF30CBE70020D0
:1026C000C9E7F8B504460D46164616B94FF0FF3077
:1026D000F8BD4348807A10B94FF0FF30F8E7201278
:1026E0008DF80000E0B28DF801009DF8010028444B
:1026F0003B4949684989884202DD4FF0FF30E7E7EE
:10270000374A1268117E364A526810786B460222A8
:10271000FEF7B4F810B14FF0FF30D9E7EAB2304B12
:102720001B68597D2E4B5B6818783346FEF70AF913
:1027300010B14FF0FF30CBE70020C9E72DE9F0439F
:1027400085B005460E4690469946254890F82500E6
:1027500020B14FF0FF3005B0BDE8F08316B94FF05F
:10276000FF30F8E7002423E0281B102801DD1020AB
:1027700000E0281B87B2321939462046FFF764FF74
:1027800010B14FF0FF30E6E701AA39462046FFF7C7
:1027900098FF10B14FF0FF30DDE730193A4601A93C
:1027A00002F0F8FA10B16FF00100D4E7E01984B23A
:1027B000AC42D9DB4FEA28208DF8000008F0FF007A
:1027C0008DF80100064A1268917E054A5268107819
:1027D0006B460222FEF752F838B103E01879000880
:1027E000200000204FF0FF30B5E701218A4880F833
:1027F0002510A0F826900020ADE70146864890F805
:10280000240008700020704702464FF0FF307047E8
:1028100001464FF0FF307047F8B505460F461446A5
:10282000002C70D0B5F5FF5F01DDFF2605E0202DFF
:1028300001DA012601E0C5F3471607B90127282C64
:1028400002DD4FF0FF30F8BD7348407D28BB724871
:1028500090F8240038B10020FFF726FE01216E48D1
:1028600080F8201003E000216B4880F820106A48AF
:102870001630FFF754F868481830FFF770F86648CC
:102880001A30FFF790F864481C30FFF7B1F862483F
:10289000817A81771F30FFF705F90020FEF776F97E
:1028A0000020FEF78BFC00208DF800005A4A1268C9
:1028B0009178594A526810786B460122FDF7DEFF85
:1028C00010B14FF0FF30BEE740208DF80000524AB3
:1028D0001268D17B504A526810786B460122FDF78E
:1028E000CDFF00B165E08DF800608DF801704A4AB7
:1028F0001268117A484A526810786B460222FDF736
:10290000BDFF08B155E047E00520FDF7DEFD424878
:10291000407A072101EBC000C0B28DF800003E4AAA
:102920001268D1793C4A526810786B460122FDF753
:10293000A5FF00B13DE020208DF80000012C03D15F
:1029400000208DF801000EE0052C03DC01208DF83D
:10295000010008E0142C03DC02208DF8010002E0E5
:1029600003208DF801009DF80100072101EB801084
:10297000C0B28DF80100284A1268917C264A52683C
:1029800010786B460222FDF779FF00B111E00121BA
:1029900021484175002056E71F4A1632002103E006
:1029A000505C00B105E0491C0C29F9D34FF0FF3011
:1029B00049E7FF2018490872FF2117484172C17288
:1029C0004FF6FF71C181FF218172017401210173F2
:1029D0000146887FFEF797F90F49C88AFEF7E9FCA0
:1029E0000D49087EFEF7A3FC0B49488BFEF7A7FBB9
:1029F0000949888BFEF74FFC0749C87FFEF76AFB41
:102A0000054890F8200010B10120FFF74DFD00218E
:102A100001484175002016E72000002010B5C823AA
:102A20004FF48062F74940F6F630FFF787FE10BD9D
:102A300010B586B00446F4A000680390F3A00068C7
:102A40000290F3A000680190F2A00068009004F0EA
:102A5000030003A9085C8DF8140003A8C4F3C101A6
:102A6000405C8DF8150003A8C4F38111405C8DF81B
:102A7000160004F0030002A9085C8DF8100002A8FB
:102A8000C4F3C101405C8DF8110002A8C4F38111A8
:102A9000405C8DF8120005AA032140F22640FFF7A2
:102AA000D3FD18B14FF0FF3006B010BD04AA0321CA
:102AB00040F22A40FFF7C8FD10B14FF0FF30F3E7B6
:102AC000019805900098049004F0040058B19DF816
:102AD000140040F001008DF814009DF8100040F043
:102AE00001008DF8100004F0200058B19DF8150089
:102AF00040F001008DF815009DF8110040F0010034
:102B00008DF8110004F4807058B19DF8160040F063
:102B100001008DF816009DF8120040F001008DF8BC
:102B2000120005AA03214FF48860FFF78DFD10B154
:102B30004FF0FF30B8E704AA032140F23140FFF71D
:102B400083FD10B14FF0FF30AEE7B34804810020A1
:102B5000AAE71FB50446B048007A00F0030054F815
:102B600020000190AC48007A00F0040010B10198F8
:102B700040420190A848007AC0F3C10054F82000F8
:102B80000290A548007A00F0200010B1029840425F
:102B90000290A148007AC0F3811054F820000390FD
:102BA0009D48008900F4807010B103984042039062
:102BB0009A49019880FB0101800F40EA8100019051
:102BC0009649029880FB0110820042EA91700290BF
:102BD0009249039880FB0110820042EA91700390B1
:102BE0000198000E8DF800000198000C8DF801008E
:102BF0000198000A8DF802000198C0B28DF8030018
:102C00006A4604214FF47470FFF71EFD18B14FF0AF
:102C1000FF3004B010BD0298000E8DF8000002983D
:102C2000000C8DF801000298000A8DF8020002984D
:102C3000C0B28DF803006A4604214FF47570FFF7A7
:102C400003FD10B14FF0FF30E3E70398000E8DF85D
:102C500000000398000C8DF801000398000A8DF81D
:102C600002000398C0B28DF803006A4604214FF4B5
:102C70007670FFF7E9FCCCE770B588B0064601A88E
:102C8000FEF7E9FEBDF804000021C90341EA504502
:102C9000C4036148007A00F0030056F82000059054
:102CA0005D48007A00F0040010B10598404205909C
:102CB0005948007AC0F3C10056F8200006905648E3
:102CC000007A00F0200010B1069840420690524869
:102CD000007AC0F3811056F8200007904E48008912
:102CE00000F4807010B10798404207900598C11712
:102CF000A0FB042301FB043100FB0510810041EA25
:102D0000927005900698C117A0FB042301FB0431C3
:102D100000FB0510810041EA927006900798C117E8
:102D2000A0FB042301FB043100FB0510810041EAF4
:102D3000927007900598000E8DF808000598000C19
:102D40008DF809000598000A8DF80A000598C0B2B0
:102D50008DF80B000698000E8DF80C000698000CFC
:102D60008DF80D000698000A8DF80E000698C0B286
:102D70008DF80F000798000E8DF810000798000CD2
:102D80008DF811000798000A8DF812000798C0B25C
:102D90008DF8130002AA0C214FF42570FFF754FCA4
:102DA00008B070BD30B585B004461DA207CA02AB9D
:102DB00007C3C82C03DD4FF0FF3005B030BDC8207D
:102DC00090FBF4F0401E85B2280A8DF80000E8B2AE
:102DD0008DF801006A46022140F21620FFF734FC0C
:102DE00010B14FF0FF30E8E702AA0C2140F6C120F5
:102DF000FFF72AFC10B14FF0FF30DEE70648848170
:102E00000020DAE7407900084CCD6C000CC92C009A
:102E100036567600264666006401002009E3CA02A1
:102E2000FEF2ABC4AAF1DFDFBBAFDFDF0146FC4837
:102E300080890880002070472DE9FC4706460F4630
:102E400006F0070010B1B7F5C86F03DD4FF0FF3093
:102E5000BDE8FC87384604F015FB8146F14904F0D3
:102E6000C7F980466846FEF77AFD9DF80000022803
:102E700006D0042816D0082826D0102848D135E0DE
:102E80004FF08D41404604F045FB814604F0C2FA04
:102E900084B2E549404604F03DFB814604F0BAFAAD
:102EA00085B238E04FF08C41404604F033FB814658
:102EB00004F0B0FA84B2DD49404604F02BFB8146B1
:102EC00004F0A8FA85B226E04FF08B41404604F0AA
:102ED00021FB814604F09EFA84B2D549404604F0B5
:102EE00019FB814604F096FA85B214E04FF08A414E
:102EF000404604F00FFB814604F08CFA84B2CD49C1
:102F0000404604F007FB814604F084FA85B202E0F3
:102F10004FF0FF309CE700BF20128DF80400E0B2B4
:102F20008DF8050028128DF80600E8B28DF807002C
:102F300006F00100A0B101AA02214FF4EA70FFF7E8
:102F400083FB10B14FF0FF3082E70DF10602022142
:102F50004FF49270FFF778FB10B14FF0FF3077E736
:102F600006F00200A0B101AA02214FF4EC70FFF7B5
:102F70006BFB10B14FF0FF306AE70DF10602022142
:102F80004FF49470FFF760FB10B14FF0FF305FE734
:102F900006F00400A0B101AA02214FF4EE70FFF781
:102FA00053FB10B14FF0FF3052E70DF10602022142
:102FB0004FF49670FFF748FB10B14FF0FF3047E732
:102FC000002045E738B504460020009004F00100D9
:102FD00020B19DF8000040F03000009004F00200A5
:102FE00020B19DF8000040F00C00009004F00400B7
:102FF00020B19DF8000040F0030000906A460121D6
:103000004FF4A470FFF720FB38BD38B50446012CFF
:1030100001DA012402E0042C00DD0424601EC0B2A9
:1030200000906A46012140F24F10FFF70DFB38BDBA
:1030300038B50446052094FBF0F085B228128DF8CF
:103040000000E8B28DF801006A4602214FF4EF70EB
:10305000FFF7FAFA38BD38B50446052094FBF0F0C6
:1030600085B228128DF80000E8B28DF801006A469A
:1030700002214FF4ED70FFF7E7FA38BDF8B50546C9
:103080000E464FF47A7095FBF0F000FB06F4200E2C
:103090008DF80000200C8DF80100200A8DF8020048
:1030A000E0B28DF803006A4604214FF4AE70FFF7DA
:1030B000CBFAF8BD38B50446052094FBF0F084B295
:1030C00020128DF80000E0B28DF801006A4602215E
:1030D0004FF4AD70FFF7B8FA38BD38B50446052097
:1030E00094FBF0F084B220128DF80000E0B28DF86D
:1030F00001006A4602214FF4AC70FFF7A5FA38BD13
:1031000038B5044614B94FF0FF3038BD6A46042183
:103110004FF45870FFF7D5FA10B14FF0FF30F4E7D5
:103120009DF8000000069DF8011040EA01409DF85E
:10313000021040EA01209DF803100843206000209F
:10314000E3E738B50446200E8DF80000200C8DF81A
:103150000100200A8DF80200E0B28DF803006A46F3
:1031600004214FF45870FFF76FFA38BD38B50446A4
:1031700014B94FF0FF3038BD6A4604214FF4717026
:10318000FFF79FFA10B14FF0FF30F4E79DF8000011
:1031900000069DF8011040EA01409DF8021040EA47
:1031A00001209DF80310084300EB800080002060A0
:1031B0000020E0E738B504461420B4FBF0F4200EFC
:1031C0008DF80000200C8DF80100200A8DF8020017
:1031D000E0B28DF803006A4604214FF47170FFF7E6
:1031E00033FA38BD38B5044664B120208DF80000AC
:1031F00028208DF8010030208DF8020038208DF84D
:10320000030004E0A3220421684601F0EFFD6A46B2
:10321000042140F69E20FFF717FAFDF77DFE38BD2A
:103220006401002000004843000040460000C04503
:10323000000040450000C04438B5044664B1C020D9
:103240008DF80000C2208DF80100C4208DF8020026
:10325000C6208DF8030004E08B220421684601F0AB
:10326000C5FD6A46042140F69820FFF7EDF9FDF709
:1032700053FE38BD3EB504466CB1FDA1D1E9002036
:103280008968CDE9002002916A4609214FF49760D0
:10329000FFF7DAF93EBDF9A2D2E900109268CDE954
:1032A000010200916A4609214FF49760FFF7CCF9BB
:1032B000F0E73EB5044602208DF80000CA208DF8E4
:1032C0000100E3208DF8020009208DF803006A4612
:1032D00004216820FFF7B8F9A3208DF8000004F05E
:1032E000400048B1C0208DF80100C8208DF80200D0
:1032F000C2208DF8030006E0A3208DF801008DF8B0
:1033000002008DF8030004F4C07048B1C4208DF8A9
:103310000400CC208DF80500C6208DF8060006E0DC
:10332000A3208DF804008DF805008DF80600A32079
:103330008DF807008DF808008DF809006A460A210B
:1033400040F6A720FFF780F904F0030018B1202011
:103350008DF8000002E0D8208DF800006A460121B7
:1033600040F6B620FFF770F904F0200018B10120F4
:10337000FFF780FF02E00020FFF77CFF04F4C0703D
:1033800008B304F4807060B1B2208DF800008B2087
:103390008DF80100B6208DF802009B208DF8030007
:1033A0000BE0B0208DF8000080208DF80100B420E3
:1033B0008DF8020090208DF803006A46042140F643
:1033C000A220FFF741F904F0010020B3F8208DF8A6
:1033D00000006A4601214FF40B60FFF735F9FA212E
:1033E0000720FFF729FD0720FFF7ECFD0120FFF77D
:1033F0000CFE6420FFF71CFE4FF4FA70FFF72BFE63
:10340000C821A148FFF73AFE2820FFF753FE0A2003
:10341000FFF763FE08E0D8208DF800006A4601211E
:103420004FF40B60FFF710F904F0020018B1D92037
:103430008DF8000002E0D8208DF800006A460121D6
:1034400040F23D70FFF700F904F0040018B10120CC
:10345000FFF7F2FE02E00020FFF7EEFE04F010009E
:1034600018B10120FFF7BEFE02E00020FFF7BAFE10
:1034700044F0080085494881FDF74EFD002083494E
:10348000887304F0400018B10846807B801D887363
:1034900004F4C07020B17D48807B801D7B49887317
:1034A00004F0140020B17948807B1030774988738C
:1034B00004F0030020B17548807B001D73498873B8
:1034C00000203EBD014671484089088000207047B9
:1034D0002DE9F0410446E07800F0C006E07800F005
:1034E0003F05607800F0010098B1EF102846E91719
:1034F00005EB5171C910A5EBC101491C01F0FF0892
:103500006248006820B161484146026838469047E9
:1035100000BF607800F0080030B15C48406818B126
:10352000B0115A4A516888470020BDE8F08110B5B3
:1035300086B0044656A207CA03AB07C357A207CA00
:103540008DE80700012C09D0022C0ED103AA0B2113
:1035500040F68220FFF778F806B010BD6A460B21CE
:1035600040F68220FFF770F8F6E74FF0FF30F3E700
:103570002DE9F04F8DB00746884615469946DDE99E
:10358000166B0024002030804049887B5A4605A9EC
:10359000FEF7BDFB18B1601E0DB0BDE8F08F3B48D3
:1035A000807A00F01400002861D09DF81400000615
:1035B0009DF8151040EA01409DF8161040EA0120E0
:1035C0009DF81710084328609DF8180000069DF824
:1035D000191040EA01409DF81A1040EA01209DF8B8
:1035E0001B10084368609DF81C0000069DF81D1024
:1035F00040EA01409DF81E1040EA01209DF81F108E
:103600000843A8609DF8200000069DF8211040EABC
:1036100001409DF8221040EA01209DF82310084344
:10362000E86004F11000C4B22868001401906868D2
:1036300000140290A86800140390E8680014049035
:1036400001984043029901FB0100039901FB01002D
:10365000049901FB010ABAF1706F02DBBAF1885FCD
:1036600022DDFDF759FC00203080401E94E721E068
:10367000B8AAB38DB4980D355D000000B8AAAAAA07
:10368000B088C3C5C700000009E3CA026401002076
:10369000D8B1B9F38BA391B609B4D900DAB1B9F3B3
:1036A0008BA391B6DAB4DA00B6F9000040F480706A
:1036B000308000BF3448807A00F0400020B305A974
:1036C000601C085C095D40EA012000B2A8F8000017
:1036D00005A9E01C095C05AAA01C105C41EA0020B9
:1036E00000B2A8F8020005A9601D095C201D105C4D
:1036F00041EA002000B2A8F80400A01DC4B2B6F947
:10370000000040F0080030801F48408900F4C0707D
:1037100008B305A9601C085C095D40EA012000B2FD
:10372000388005A9E01C095C05AAA01C105C41EAD0
:10373000002000B2788005A9601D095C201D105C86
:1037400041EA002000B2B880A01DC4B2B6F9000062
:1037500040F0700030800C48807A00F0030018B10F
:1037600005A90819FFF7B4FE4846FDF734FF00200D
:1037700012E70146044801600020704701460248F4
:10378000416000207047000064010020014691F96B
:103790000020002A01DD00201EE091F90020002A0F
:1037A00001DA042018E091F90120002A01DD01204E
:1037B00012E091F90120002A01DA05200CE091F9CC
:1037C0000220002A01DD022006E091F90220002AF1
:1037D00001DA062000E00720704770B5054628464C
:1037E000FFF7D4FF0446E81CFFF7D0FF44EAC0000F
:1037F00084B2A81DFFF7CAFF44EA801084B22046B5
:1038000070BD70B588B002A905A8FEF792FE044607
:10381000072C3FD101A8FEF701F9059803F01AFE25
:103820000646019903F076FE054603F0D7FD0590A4
:10383000069803F00FFE0646019903F06BFE05465D
:1038400003F0CCFD0690079803F004FE06460199AC
:1038500003F060FE054603F0C1FD079005A8FFF7E1
:1038600078F96846FEF7F7F8BDF80010029848436B
:103870000290BDF80010039848430390BDF8001073
:1038800004984843049002A8FFF7F6F9FEA001F05F
:1038900005FA00BF08B070BD2DE9F04304460D469F
:1038A000DDE907670021012041E0DFF800C43CF8B2
:1038B0001080A0F1010CDFF8F49329F81C8009F1C5
:1038C000160C3CF81090A0F1010CDFF8E08308F131
:1038D000160828F81C9008F1160C3CF81090A0F17E
:1038E000010C08F1160828F81C9008F1160C3CF899
:1038F0001090A0F1010C08F1160828F81C9008F1AE
:10390000160C3CF81090A0F1010C08F1160828F8EC
:103910001C9008F1160C3CF81090A0F1010C08F175
:10392000160828F81C9000F1010C0CF0FF000A2882
:10393000BBDBDFF878C3ACF81240ACF82850ACF829
:103940003E20ACF85430ACF86A60ACF880700021CE
:10395000002008E0DFF854C33CF910C0614400F1D6
:10396000010C0CF0FF000A28F4DB4FF00A0C91FB6D
:10397000FCFC0FFA8CFCDFF83483A8F814C000219B
:1039800000200AE0DFF824C30CF1160C3CF910C04B
:10399000614400F1010C0CF0FF000A28F2DB4FF04B
:1039A0000A0C91FBFCFC0FFA8CF8DFF800C3ACF8B2
:1039B0002A80002100200AE0DFF8F0C20CF12C0C74
:1039C0003CF910C0614400F1010C0CF0FF000A2822
:1039D000F2DB4FF00A0C91FBFCFC0FFA8CF8DFF8DD
:1039E000CCC2ACF84080002100200AE0DFF8BCC265
:1039F0000CF1420C3CF910C0614400F1010C0CF0D8
:103A0000FF000A28F2DB4FF00A0C91FBFCFC0FFAD6
:103A10008CF8DFF898C2ACF85680002100200AE04C
:103A2000DFF888C20CF1580C3CF910C0614400F179
:103A3000010C0CF0FF000A28F2DB4FF00A0C91FB9E
:103A4000FCFC0FFA8CF8DFF864C2ACF86C80002143
:103A500000200AE0DFF854C20CF16E0C3CF910C0F3
:103A6000614400F1010C0CF0FF000A28F2DB4FF07A
:103A70000A0C91FBFCFC0FFA8CF8DFF830C2ACF8B2
:103A80008280BDE8F08338B50446032302226B210F
:103A9000D0200094FDF724F838BD38B50446022341
:103AA00004221B21D0200094FDF71AF838BD38B548
:103AB0000446022304221C21D0200094FDF710F8B4
:103AC00038BD10B50446234606226B21D020FDF7F1
:103AD0003CF810BD10B5764B01227521D020FCF7C3
:103AE0008FFF7348007810BD10B5FFF7F3FF68280B
:103AF00001D1012010BD0020FCE710B5044623468B
:103B000005226A21D020FDF720F810BD10B504462B
:103B1000234601223721D020FDF717F810BD10B53C
:103B20000220FFF7B0FF0320FFF7B7FF0020FFF7E9
:103B3000BEFF0020FFF7C5FF0020FFF7DEFF0020DB
:103B4000FFF7E4FF10BD38B5002000906B4601225E
:103B500075216820FCF7F6FE56A001F09FF89DF84D
:103B6000000068280ED000BF5B48006800F4E060E9
:103B70005A490843001D58490860BFF3408F00BFF1
:103B800000BFFEE7FDF757FC00283CD17820FDF789
:103B9000BAF810B947A001F081F87820FDF79AFA39
:103BA00010B94FA001F07AF8C820FDF774FB10B9E6
:103BB00055A001F073F8FEF731FF10B95CA001F0D9
:103BC0006DF86848FFF709FE0446FEF731FF10B9AB
:103BD00065A001F063F840F27310FFF76AFB10B9BB
:103BE0006BA001F05BF8C820FFF7DCF810B972A0F9
:103BF00001F054F8FFF705FE0120FEF755FC10B95F
:103C000076A001F04BF838BD2DE9F04F8FB00CA82D
:103C10007B490DAB08AACDE900107A497A48FFF735
:103C2000A7FC7748008800F4807000282AD0089804
:103C300003F010FC04464FF09D4103F0D9FA73499C
:103C40000860099803F006FC04464FF09D4103F01C
:103C5000CFFA6F4908600A9803F0FCFB04464FF066
:103C60009D4103F0C5FA6B4908600B9803F0F2FB25
:103C700004464FF09D4103F0BBFA67490860634872
:103C80000168CBE0A0E1000073657474696E672081
:103C9000626961732073756363657366756C6C79B3
:103CA000202E2E2E2E2E2E0D0A0000008201002026
:103CB000740100206D70755F7365745F73656E735A
:103CC0006F7220636F6D706C657465202E2E2E2EC2
:103CD0002E2E0D0A000000000CED00E00000FA0599
:103CE0006D70755F636F6E6669677572655F666933
:103CF000666F20636F6D706C657465202E2E2E2E9E
:103D00002E2E0D0A000000006D70755F7365745FE4
:103D100073616D706C655F7261746520636F6D7047
:103D20006C657465202E2E2E2E2E2E0D0A0000009E
:103D3000646D705F6C6F61645F6D6F74696F6E5FEF
:103D40006472697665725F6669726D77617265200B
:103D5000636F6D706C657465202E2E2E2E2E2E0DC9
:103D60000A00000078000020646D705F7365745F66
:103D70006F7269656E746174696F6E20636F6D70C8
:103D80006C657465202E2E2E2E2E2E0D0A0000003E
:103D9000646D705F656E61626C655F6665617475A8
:103DA000726520636F6D706C657465202E2E2E2EEB
:103DB0002E2E0D0A00000000646D705F7365745F45
:103DC0006669666F5F7261746520636F6D706C65A4
:103DD0007465202E2E2E2E2E2E0D0A006D70755F0E
:103DE0007365745F646D705F737461746520636F75
:103DF0006D706C657465202E2E2E2E2E2E0D0A00F1
:103E000058000020520000204C00002068000020D4
:103E10006C00002070000020740000204FF08040F3
:103E200003F078FB069085480168069803F072FB62
:103E30008246834801684FF0404003F06BFB0690D8
:103E400080480168069803F065FB8346514603F0FD
:103E500061F9079003F032F9804602F0D7F8064680
:103E60004FF06632784B02F04FFE044602F012FC2F
:103E700076490860714801684FF0804003F04AFBC2
:103E800003906E480168039803F044FB82466C4837
:103E900001684FF0404003F03DFB03906848016823
:103EA000039803F037FB8346514603F031FC81460B
:103EB0004FF07E5103F02EF9044603F0FFF8CDE9F0
:103EC0000401634801684FF0804003F023FB834600
:103ED0005B480168584603F01DFB8146574801685E
:103EE0004FF0804003F016FB834656480168584661
:103EF00003F010FB8246494603F00CF9044603F038
:103F0000DDF80746DDE9042302F0C8FA4FF0663217
:103F10004D4BCDE9060102F0F7FD054602F0BAFB74
:103F20004C49086047480168006803F0F3FA0390C1
:103F300042480168006803F0EDFA029040480168C9
:103F4000006803F0E7FA834641480168006803F01F
:103F5000E1FA5946019003F0DDF88246029903F038
:103F6000D7FB8146039903F0D3FB044603F0A6F880
:103F7000CDE90401334801683548006803F0CAFA06
:103F800082462E4801682E48006803F0C3FA834633
:103F9000514603F0BFF881464FF0804103F0BAFA72
:103FA000044603F08BF80746DDE9042302F076FAB5
:103FB0004FF06632244BCDE9060102F0A5FD05461F
:103FC00002F068FB244908600FB0BDE8F08F2DE9CE
:103FD000F05F4221D020FCF7F0FC05464121D020C3
:103FE000FCF7EBFC05EB0024204603F033FA824695
:103FF0004FF08E41504603F059FB05D24FF08F41F0
:10400000504603F085FB82461449504603F0F0F811
:10401000834603F053F88046114A124B02F06CFBC2
:1040200006460022104B02F06FFD044602F032FB00
:104030008246504603F0D2F9BDE8F09F70000020A0
:104040006C0000207400002066A64C405C0000203C
:104050006800002060000020640000200000AA43E7
:10406000A4703D0AD7434240000024403149014337
:10407000314A1160704770B5002100230F22C478C7
:1040800004B32D4C246804F4E064C4F5E064210A10
:10409000C1F10403CA40447804FA03F1847814405F
:1040A00021430901254C0678A155047804F01F0529
:1040B0000124AC4005786D11AD0005F1E025C5F88F
:1040C000004109E0047804F01F050124AC401C4DB8
:1040D0000678761145F8264070BD1A4A0A40024318
:1040E000154B1B1F1A60704739B1134A121D126815
:1040F0000243114B1B1D1A6006E00F4A121D126885
:1041000082430D4B1B1D1A607047042808D14FF0E5
:10411000E021096941F004014FF0E022116107E05C
:104120004FF0E021096921F004014FF0E022116114
:10413000704700000000FA050CED00E000E400E02C
:1041400080E100E080FFFF1F10B50446CC488442A8
:1041500008D10121042000F02DFB0021042000F0F3
:1041600029FB46E0C748844208D10121082000F01D
:1041700021FB0021082000F01DFB3AE0C2488442E8
:1041800008D10121102000F015FB0021102000F0C3
:1041900011FB2EE0BD48844208D10121202000F00F
:1041A00009FB0021202000F005FB22E0B8488442F2
:1041B00008D10121402000F0FDFA0021402000F04C
:1041C000F9FA16E0B348844208D10121802000F0BA
:1041D000F1FA0021802000F0EDFA0AE0AE488442B6
:1041E00007D10121801500F0E5FA0021A01500F0AB
:1041F000E1FA10BD10B50121084600F0DBFA0021FC
:10420000012000F0D7FA10BD2DE9F041024600254B
:104210000026002000230024002791F803C00CF0A2
:104220000F0591F803C00CF0100CBCF1000F03D087
:1042300091F802C04CEA050591F800C0BCF1000FEE
:1042400031D0146800202BE04FF0010C0CFA00F381
:10425000B1F800C00CEA03069E4220D183004FF063
:104260000F0C0CFA03F7BC4305FA03FC4CEA0404F8
:1042700091F803C0BCF1280F06D14FF0010C0CFAE5
:1042800000FCC2F814C00AE091F803C0BCF1480F6A
:1042900005D14FF0010C0CFA00FCC2F810C0401C14
:1042A0000828D1D31460B1F800C0BCF1FF0F34DD91
:1042B000546800202EE000F1080C4FF0010808FAC5
:1042C0000CF3B1F800C00CEA03069E4221D1830032
:1042D0004FF00F0C0CFA03F7BC4305FA03FC4CEA51
:1042E000040491F803C0BCF1280F05D100F1080CBB
:1042F00008FA0CF8C2F8148091F803C0BCF1480F1A
:1043000007D100F1080C4FF0010808FA0CF8C2F8C8
:104310001080401C0828CED35460BDE8F0814FF6D1
:10432000FF710180022181700421C1707047024633
:10433000002093680B400BB1012000E00020704783
:104340000146886880B2704702460020D3680B405F
:104350000BB1012000E0002070470146C86880B220
:10436000704701617047416170470AB1016100E027
:1043700041617047C16070474FF480320A438261E7
:104380008161826182698269704702460020434BE5
:1043900018684FF68073184040EA021008433F4BFC
:1043A000186070473E49C8617047F0B50A4600235F
:1043B00000240021002500F00046B6F1004F02D194
:1043C000364EF16901E0354E7168C0F3034583B2A2
:1043D00000F44016B6F5401F08D121F070612F4E51
:1043E000766826F070662D4F7E6012E000F480162D
:1043F000B6F5801F06D1032606FA05F4A14341F065
:10440000706106E0460D360103FA06F6B14341F04D
:10441000706122B1460D360103FA06F6314300F011
:104420000046B6F1004F02D11C4EF16101E01B4E77
:104430007160F0BD30B500228B071C0F0F2303FA0B
:1044400004F2164B08338C1053F824309343134C6A
:1044500008348D1044F8253023468C1053F824304E
:104460008C07240F00FA04F423430C4C08348D10FD
:1044700044F8253030BD0A49DC310860704700003F
:1044800000080140000C01400010014000140140F0
:1044900000180140001C01400020014000000140C4
:1044A00000002042DF48006840F00100DD4908605C
:1044B00008464068DC490840DA4948600846006818
:1044C000DA490840D74908600846006820F480208F
:1044D00008600846406820F4FE0048604FF41F0062
:1044E00088607047CF49096821F48031CD4A116056
:1044F0001146096821F480211160B0F5803F03D096
:10450000B0F5802F0ED106E0C649096841F480312C
:10451000C44A116007E0C349096841F4A021C14AB7
:10452000116000E000BF00BF704710B501460022D7
:10453000002300204A11012A02D1BA4C236806E068
:10454000022A02D1B74C236A01E0B64C636A01F03B
:104550001F02012494401C400CB1012000E0002007
:1045600010BD38B5002000900024002500BF312088
:10457000FFF7DBFF05460098401C00900098B0F55F
:10458000A06F01D0002DF2D03120FFF7CEFF08B18F
:10459000012400E00024204638BD01460020A14A45
:1045A000106820F0F80040EAC10010607047A04990
:1045B00008607047024600209A4B586820F47C102F
:1045C00042EA01031843974B5860704798490866C0
:1045D000704701460020934A506820F003000843CA
:1045E000506070478F48406800F00C0070470146EB
:1045F00000208C4A506820F0F0000843506070475B
:1046000001460020874A506820F4E060084350606B
:10461000704701460020834A506820F4605040EA09
:10462000C1005060704729B17E4A527A02437D4BE7
:104630005A7204E07B4A527A82437A4B5A7270472C
:104640007B49D8310860704701460020754A5068A0
:1046500020F440400843506070470021714A2032E6
:104660001170704A82F82010012802D004280AD163
:1046700004E001216B4A2032117005E00521694AEE
:104680002032117000E000BF00BF70476949086028
:1046900070476449096A0143624A1162704765497B
:1046A00044390860704730B50021002200240023FF
:1046B0005C4D6D6805F00C0121B1042905D0082975
:1046C00023D105E05C4D056022E05B4D05601FE0F5
:1046D000544D6D6805F47012524D6D6805F48034C8
:1046E000022505EB92421CB9544D554305600BE081
:1046F0004C4D6D6805F400351DB1504D55430560B6
:1047000002E04D4D5543056002E04B4D056000BF92
:1047100000BF444D6D6805F0F0010909484D6B5C20
:104720000568DD4045603F4D6D6805F4E061090AAC
:10473000434D6B5C4568DD4085603A4D6D6805F41E
:104740006051C90A3E4D6B5C4568DD40C560354D22
:104750006D6805F44041890B3A4D6B5CC568B5FB4B
:10476000F3F5056130BD29B12E4A526902432D4B44
:104770005A6104E02B4A526982432A4B5A617047BE
:1047800029B1284A92690243264B9A6104E0254ADE
:1047900092698243234B9A61704729B1214AD269B9
:1047A0000243204BDA6104E01E4AD26982431D4B6A
:1047B000DA61704729B11B4AD2680243194BDA60AB
:1047C00004E0184AD2688243164BDA60704729B178
:1047D000144A12690243134B1A6104E0114A126928
:1047E0008243104B1A617047124940390860704784
:1047F0000F49C86470470B49C87170470948406A3F
:1048000040F0807007494862704701460020054A21
:1048100092680A400AB1012000E000207047014977
:1048200088727047001002400000FFF8FFFFF6FE9C
:10483000000042428004424200127A0000093D001A
:10484000880000209800002010B50446FB488442F0
:1048500009D101218803FFF7ADFF00214FF480400B
:10486000FFF7A8FF32E0F648844209D1012148044D
:10487000FFF7ADFF00214FF40030FFF7A8FF25E060
:10488000F048844209D101218804FFF7A0FF0021EC
:104890004FF48020FFF79BFF18E0EB48844209D1DA
:1048A0000121C804FFF793FF00214FF40020FFF718
:1048B0008EFF0BE0E548844208D101210805FFF78F
:1048C00086FF00214FF48010FFF781FF10BD2DE916
:1048D000F04786B005460E460024A24600BFA1461A
:1048E0000027B08900B100BF2F462C8A4CF6FF701C
:1048F0000440F08804432C82AC894EF6F310044047
:10490000B08831890843718908430443AC81AC8A7B
:104910004FF6FF400440B0890443AC8201A8FFF782
:10492000C2FEC648874202D1DDF810A001E0DDF8E2
:104930000CA0A88900F4004040B10AEBCA0000EBCB
:104940000A1031684900B0FBF1F807E00AEBCA0031
:1049500000EB0A1031688900B0FBF1F86420B8FB65
:10496000F0F004012009642101FB1089A88900F4FA
:10497000004040B1322000EBC900B0FBF1F000F084
:104980000700044308E0322000EB09106421B0FB6B
:10499000F1F000F00F0004432C8106B0BDE8F08771
:1049A0004FF41651016000218180C18001810C21EA
:1049B000418100218181704710B502460020108A94
:1049C0004FF2FF0318400B884C8823438C88234305
:1049D000CC8823431843108210BD00210180418000
:1049E0008180C180704721B1828942F40052828166
:1049F00004E082894DF6FF731A4082817047F0B55A
:104A00000346002400260025002040F66A17B9421C
:104A100000D100BF1846C1F3421401F01F06012760
:104A200007FA06F5012C01D10C3004E0022C01D16B
:104A3000103000E014301AB107682F43076002E01D
:104A40000768AF430760F0BD1AB1838A0B438382C6
:104A500002E0838A8B4383827047028A4FF6F073A9
:104A60001A400282028A0A430282704782894FF208
:104A7000FF731A40828182890A438281704721B183
:104A8000828942F00202828104E082894FF6FD733E
:104A90001A4082817047028A4FF6DF731A40028201
:104AA000028A0A430282704721B1028A42F480429C
:104AB000028204E0028A4BF6FF731A4002827047BA
:104AC000C1F308028280704701468888C0F308005D
:104AD0007047818941F0010181817047028BD2B218
:104AE0000283028B42EA012202837047028B02F4A6
:104AF0007F420283028B0A430283704721B1828A7C
:104B000042F02002828204E0828A4FF6DF731A406C
:104B10008282704721B1828A42F01002828204E0D0
:104B2000828A4FF6EF731A408282704721B1828ADF
:104B300042F00802828204E0828A4FF6F7731A403C
:104B40008282704721B1828942F40042828103E06F
:104B50008289C2F30E028281704721B1828A42F4B7
:104B60000062828204E0828A4FF2FF731A408282DE
:104B70007047828A4FF6FB731A408282828A0A4308
:104B80008282704721B1828A42F00202828204E06E
:104B9000828A4FF6FD731A408282704702460020D7
:104BA000B1F5007F00D100BF13880B400BB101208D
:104BB00000E00020704701F40072B2F5007F00D1E0
:104BC00000BFCA430280704770B50246002400232C
:104BD0000025002040F66A16B14200D100BFC1F3A3
:104BE000421501F01F03012606FA03F3012D02D13D
:104BF0009689334006E0022D02D1168A334001E047
:104C0000968A33400C12012606FA04F416883440C2
:104C100013B10CB1012000E0002070BD10B50022DE
:104C2000002340F66A14A14200D100BF0A120124F9
:104C30009440A3B2DC43048010BD00000038014062
:104C40000044004000480040004C0040005000403C
:104C5000704710B54C1084EA530404D54042C1F1AA
:104C6000000138BF491E1B4204D55242C3F1000364
:104C700038BF5B1E00F0C6F814F0804F04D04042ED
:104C8000C1F1000138BF491E14F0004F04D0524258
:104C9000C3F1000338BF5B1E10BD00000FB4044910
:104CA00010B503AA029800F095FB10BC5DF814FB48
:104CB000180000202DE9F0410E4604460020206235
:104CC0002046E168884730B3252805D0D4E9012182
:104CD0009047206A401CF2E7E16820460027884799
:104CE000050018D0A5F14100192802D820354FF44D
:104CF00000673246294620462760FBF731FA40B16B
:104D0000012804D0F61D26F007060836D8E7361D20
:104D1000D6E72846DAE7206ABDE8F0812DE9F041C0
:104D20000646002410687529314616A510D0AFF349
:104D30000080002802DA404213A507E031688A07A4
:104D400001D512A502E0490704D511A5012401E00F
:104D5000AFF3008000210A2206F1240709E0B0FB2E
:104D6000F2FCB0FBF2F302FB1C0030307854184622
:104D7000491C0028F3D123462A463046BDE8F041BD
:104D800000F0C2B8000000002D0000002B00000061
:104D90002000000040EA010310B59B070FD1042A50
:104DA0000DD310C808C9121F9C42F8D020BA19BAF6
:104DB000884201D9012010BD4FF0FF3010BD1AB15B
:104DC000D30703D0521C07E0002010BD10F8013BB0
:104DD00011F8014B1B1B07D110F8013B11F8014BD7
:104DE0001B1B01D1921EF1D1184610BD02F0FF032A
:104DF00043EA032242EA024200F000BB70477047D8
:104E00007047704753EA020C00F069802DE9F04BBF
:104E10004FF00006002B1FBFB3FA83F503FA05F429
:104E200024FA05F65E4012BF1643B2FA82F502FA82
:104E300005F4C5F120051EBF22FA05FC44EA0C0466
:104E4000203556EA044C4FEA144418BF641C4FF056
:104E500000084FF00009904271EB030C39D3002990
:104E600019BFB1FA81F701FA07F6B0FA80F700FA34
:104E700007F6C7F120071EBF20FA07FC46EA0C061A
:104E80002037B6FBF4FCA7EB0507103F07F01F0B1C
:104E9000CBF120060CFA0BFB2CFA06F644BFB34606
:104EA0000026202FA4BF5E464FF0000B5BEA060CE5
:104EB00008BF4FF0010B19EB0B09ABFB027C48EB71
:104EC0000608C01B06FB02CC0BFB03CC71EB0C01EC
:104ED000C1E70B46024641464846BDE8F08B13B594
:104EE0004FF000004FF00001AFF30080BDE81C4020
:104EF000704710B500F0A6FA006810BD10B5044662
:104F000000F0A0FA046010BD2DE9F0470D46994667
:104F10009246044600F124080168880604D5E06939
:104F200021F01001216000E00120A84201DD471BB3
:104F300000E00027A1697A1902EB0900081AA061B4
:104F40002078C00602D42046AFF30080002608E097
:104F5000D4E901211AF806009047206A401C761C0B
:104F600020624E45F4DB2078C0060AD52046AFF318
:104F7000008006E0D4E9012130209047206A401CDF
:104F80002062381EA7F10107F4DC07E0D4E9012113
:104F900018F805009047206A401C2062281EA5F1E1
:104FA0000105F3DC2046AFF300802078000602D52F
:104FB0000220BDE8F0870120FBE770472DE9FF4F95
:104FC0000C461E464FF0FF378BB0D2E90001DDF8EA
:104FD00060800A908A46C1F30A5505B93D46002112
:104FE00008464FF00000BAF1000F00F4400005DA67
:104FF00000EB80004FF4400101EA50004FEA905965
:10500000B9F1010F00DDB9460A9850EA4A000ED006
:1050100044F61050A5F2FF3545432F14B8F1000FA8
:105020001ED07542291E1EDDC9F100021CE0B8F138
:10503000010F4FF0000001D0302103E0F24305E002
:105040002154401CB042FBDB304600220021215499
:105050000B99C1F80880C1E900200FB0BDE8F08FBE
:10506000BD1B6D1CDEE74A4600DA694206A800F067
:105070008BFA06AB93E8070003AB83E807005046C2
:105080000A9900F08BFB8DE80700A0F500501F384F
:1050900000900398002D09DD42F21F014A460844A2
:1050A00003A90390684600F0EAFD08E0A0F500506F
:1050B0004A461F3803A90390684600F0F4FD8DE8C6
:1050C00007000004000C03D04FF0FF30410800E05F
:1050D0001046B8F1000F03D00022009215461EE0E2
:1050E000751E05D400F0B2F9303262556D1EF9D547
:1050F000B3460122084302D000227F1C04E020783E
:10510000302801D100227F1E002A099786D01DE099
:10511000112D07DA00F09AF9303262556D1C50EA11
:105120000102F5D1084302D00098C8B10EE0002179
:10513000681E05E0235C625C63542254401E491CD7
:105140008142F7DBAB46A81B401E0990002004F803
:105150000B000B98099AC0F80880C0E9002B7CE787
:1051600011264FF0000859E72DE9F04F8846044614
:10517000D21D22F0070191B0D1E90001CDE90A0169
:1051800000F0C7FE02460B98C00F01D02D2007E0AB
:105190002068810701D52B2002E0202101EAC00010
:1051A000032A099001D0072A05DB03464146204621
:1051B00000F0AAF90BE12078800601D5E06900E053
:1051C0000620B8F1650F814606D0B8F1660F18D0F9
:1051D000B8F1670F70D131E00020B9F1110F0090E4
:1051E00001DB112301E009F101030AAA01A90CA8BE
:1051F000FFF7E4FEDDE90C70002609F101058346A6
:1052000047E001204B4600904FF000470AAA01A951
:105210000CA8FFF7D3FEDDE90DB00C995D46002622
:1052200010B909F101000D18B9EB050003D4C0F164
:10523000FF3609F10105A5EB09002BE0B9F1010FDB
:1052400001DA4FF001090020B9F1110F0090484632
:1052500001DD112300E003460AAA01A90CA8FFF70B
:10526000ADFEDDE90C704D46002683462078000730
:105270000AD4AB4500DA5D4601A8012D04DD4119D1
:1052800011F8011C302907D04F4502DA17F1040F3D
:1052900004DA012082460FE06D1EEEE7002F02DCEB
:1052A000ED1B3E4403E0781CA84200DD7D1CB81BCA
:1052B00000F1010A4FF000472078000703D4AA4507
:1052C00001DB4FF0FF3A0021B7F1004F0DF1430829
:1052D0008DF8431024D002202B23002F01DA7F42C7
:1052E0002D230A21021EA0F1010000DC5FB197FB13
:1052F000F1FC97FBF1F201FB1C7C17460CF1300C22
:1053000008F801CDEEE7A8F1010003702188090536
:1053100001D5452100E06521A0F1010800F8011C3C
:1053200009980FA9A1EB0807FF1D00B10120411941
:1053300001EBEA70A1693844081A401EA061207888
:10534000C00602D42046AFF30080099828B1D4E902
:1053500001219047206A401C20622078C00622D597
:105360002046AFF300801EE0002E04DBB34502DDD3
:1053700001A8805D00E03020D4E901219047206A37
:10538000401C2062761CAAF101005FEA000A0AD1E3
:1053900000F054F8C0680168405CD4E901219047EE
:1053A000206A401C2062281EA5F10105DCDC07E014
:1053B000D4E9012118F8010B9047206A401C2062B3
:1053C000381EA7F10107F3DC2046AFF3008003206D
:1053D00011B043E6074B70B50D467B4400F081F8F1
:1053E0000446284600F03EF910B14FF0FF3070BD82
:1053F000204670BD4DB1FFFF4FF000020429C0F000
:10540000128010F0030C00F03381CCF1040CBCF1DD
:10541000020F18BF00F8012BA8BF20F8022BA1EB48
:105420000C0100F025B95FEAC17C24BF00F8012B14
:1054300000F8012B48BF00F8012B70470048704767
:1054400028020020004870470802002030B5B0F163
:105450000A024FEA900E71F100034EEA817EB0EB32
:105460000E0061EB91014FEA101E4EEA017E10EB37
:105470000E0041EB11114FEA102E4EEA016E10EBB7
:105480000E0041EB11214FEA104E4EEA014E10EB97
:105490000E0041EB1141401841F100014FEAD000EC
:1054A00040EA41704FEAD10110EB80054FEA8104D8
:1054B00044EA907444EB01046D1944EB0404521B5C
:1054C000A3414FF0000348BF0A3200D530BD401C55
:1054D00041F1000130BD000001694A1C02610878F9
:1054E000704700B58FB0CDE9013100210591054924
:1054F0007944CDE9031011466846FFF7DBFB0FB096
:1055000000BD0000E5FFFFFF2DE9F0411F46044606
:1055100003260168072A01F4006004DB08B116A520
:1055200005E016A503E008B115A500E015A521F0DA
:1055300010002060A069C01EA0610FB1401EA061D4
:105540002046AFF300804FB1D4E90121384690479F
:10555000206A401C2062C01C206206E0206AFAE734
:10556000D4E9012115F8010B9047761EF8D22046A8
:10557000AFF30080BDE8F0814E414E006E616E00D9
:10558000494E4600696E66002DE9F0478146164691
:105590008AB0334878440DC88DE80D00304878440F
:1055A000801C03AC0DC884E80D0041F69B30084414
:1055B000372190FBF1F290FBF1F5A5F1800501FB9D
:1055C00012041B3C02D56442012000E00020DFF8F9
:1055D00090A080460027FA44AAF1BE0A0DE0E00739
:1055E00009D03246684607EB47010AEB810100F01B
:1055F0005AFB8DE8070064107F1C002CEFD1184F78
:105600007F44AC3F18E0E80714D007EB04100DF11D
:10561000180A90E80E008AE80E00C068F04201D136
:1056200098190890324606A903A800F03CFB03AB8A
:1056300083E807006D10641C002DE4D132466946F2
:10564000B8F1000F03A802D000F019FB01E000F050
:105650002AFBC9E90001C9F808200AB0BDE8F087B3
:105660000C310000007B00F0800070474FF000021A
:1056700000B5134694469646203922BFA0E80C5048
:10568000A0E80C50B1F12001BFF4F7AF090728BF23
:10569000A0E80C5048BF0CC05DF804EB890028BF9F
:1056A00040F8042B08BF704748BF20F8022B11F0C8
:1056B000804F18BF00F8012B70470000004870476A
:1056C000080200207546FFF7F9FFAE46050069465F
:1056D000534620F00700854618B020B5FAF770FD54
:1056E000BDE820404FF000064FF000074FF00008E3
:1056F0004FF0000B21F00701AC46ACE8C009ACE864
:10570000C009ACE8C009ACE8C0098D467047044642
:10571000AFF300802046FAF740FD00004FF0013C57
:1057200050F8042B51F8043B9A4221D1A2EB0C0310
:10573000934313EACC1317D150F8042B51F8043BD0
:105740009A4215D1A2EB0C03934313EACC130BD16D
:1057500050F8042B51F8043B9A4209D1A2EB0C03F8
:10576000934313EACC13DBD04FF00000704700BF27
:10577000D01A01BAB1FA81F101F0180122FA01F050
:10578000CB40C1F12001DBB2C0B2C01A2CFA01F348
:10579000D11A914311EAC311E6D170475FEA400C78
:1057A00008BF91F0000F4FEA8C234FEAC12243EA71
:1057B00051514FEA1C5018BF00F5F0404FEA30003D
:1057C00018BF41F000415FEA6C5C00F02980BCF139
:1057D000FF3F08BF40F080407047130C06BF120423
:1057E0004FF0100C4FF0000C130E04BF12020CF11E
:1057F000080C130F04BF12010CF1040C930F04BF2B
:1058000092000CF1020CD30F04BF52000CF1010CFA
:1058100011464FF00002A0F11F00A0EB0C007047F2
:1058200011F0004F08BF704731F000413FF4D5AF91
:105830000B0C06BF09044FF0100C4FF0000C0B0EC0
:1058400004BF09020CF1080C0B0F04BF09010CF195
:10585000040C8B0F04BF89000CF1020CCB0F04BFAA
:1058600049000CF1010CCCF12003A0EB0C0022FA52
:1058700003F302FA0CF241EA030100F10100704760
:1058800020F07F4C80EA030023F07F47ACEB070356
:1058900003F57C5300F0004003F1FF032DE980493C
:1058A0004FEA154B09B44FEA144325EA0B4E24EA9C
:1058B00003480FF2042606EB132749083E785FEAF7
:1058C000320203FB0667C7F5000707FB06F64FEA3F
:1058D00054374FEAD64606F1020607FB066CCCF1B8
:1058E000005C4FEA1C472CEA074C07FB06F40CFB54
:1058F00006F504EB15464FEA961634BF00204FF02C
:1059000000404FEAD13706FB07FC4FEA1C4C0CFB6A
:105910000BF7D21B03FB0CF761EB07010CFB0EF737
:10592000B0EB074072EB17420CFB08F734BFA2EB59
:105930000742B2EB074261EB17414FEA0C444FEAD2
:10594000910706FB07FC4FEA1C4C0CFB0BF7B0EB76
:10595000C74072EB573203FB0CF734BFA2EBC742D0
:10596000B2EBC74261EB57310CFB0EF7B0EBC7004F
:1059700072EB57720CFB08F734BFA2EBC702B2EB15
:10598000C70261EB5771039F4FEA816141EA9211AF
:1059900004EBCC044FEAD1374FEA826206FB07FCE6
:1059A00042EA90124FEA80604FEA1C4C0CFB0BF766
:1059B000D21B03FB0CF761EB07010CFB0EF7B0EBFE
:1059C000074072EB17420CFB08F734BFA2EB07420B
:1059D000B2EB074261EB17414FEA8C554FEA910752
:1059E00004EB9C2406FB07FC4FEA1C4C0CFB0BF75A
:1059F000B0EBC74072EB573203FB0CF734BFA2EB9E
:105A0000C742B2EBC74261EB57310CFB0EF7B0EB6C
:105A1000C70072EB57720CFB08F734BFA2EBC7024A
:105A2000B2EBC70261EB577115EB4C254FEA816170
:105A300041EA92114FEA82624FEAD13742EA90126C
:105A400006FB07FC44F100044FEA80604FEA1C4C5F
:105A50000CFB0BF7D21B03FB0CF761EB07010CFBF4
:105A60000EF7B0EB074072EB17420CFB08F734BFA0
:105A7000A2EB0742B2EB074261EB174115EB1C1595
:105A80004FEA813141EA92414FEA823242EA904242
:105A90004FEA80304FEA0C7644F1000448EA0343B1
:105AA0004EEA0B484FF0000EB2EB080C71EB030707
:105AB00024BF624639464EEB0E0E4FF0000B001825
:105AC000524149414BEB0B0BB2EB080C71EB030756
:105AD0007BF1000B24BF624639464EEB0E0E4FF0B1
