:020000040800F2
:10000000100A002001010008AF2D0008F5200008AB
:10001000AD2D000879080008553B000800000000DD
:10002000000000000000000000000000D32D0008C8
:100030007B08000800000000D12D0008012E0008F8
:100040001B0100081B0100081B0100081B01000820
:100050001B0100081B0100081B0100081B01000810
:100060001B0100081B0100081B0100081B01000800
:100070001B0100081B0100081B0100081B010008F0
:100080001B0100081B0100081B0100081B010008E0
:100090001B0100081B0100081B0100081B010008D0
:1000A0001B0100081B0100081B0100081B010008C0
:1000B000D12E0008DD2E0008A13500081B01000824
:1000C0001B0100081B0100081B0100081B010008A0
:1000D0001B010008C93A00081B0100081B010008A9
:1000E0001B0100081B0100081B010008DFF80CD0F1
:1000F00000F034FB00480047A1440008100A00202B
:100100000648804706480047FEE7FEE7FEE7FEE7B1
:10011000FEE7FEE7FEE7FEE7FEE7FEE7892E0008C2
:10012000ED000008202A04DB203A21FA02F0002129
:10013000704721FA02F3D040C2F1200291400843F7
:1001400019467047D2B201E000F8012B491EFBD2DC
:1001500070470022F6E710B513460A4604461946D2
:10016000FFF7F0FF204610BD2DE9FE4F804681EAE3
:100170000300C00F0C46009021F0004123F0004521
:10018000B8EB0200A94105D24046214690461C46E4
:100190000B46024623F00040104347D0270DC7F31B
:1001A0000A00C3F30A510290401A019040286BDA0A
:1001B000C3F3130040F4801B0098924620B1002343
:1001C000D2EB030A63EB0B0B01985946C0F14002D6
:1001D000504600F0EAF906460D4650465946019A47
:1001E00000F0F2F910EB08006141002487EA115297
:1001F00084EAE7731A4340D0009A62B3019A012A55
:100200004FEA075215DC001B61EB02014FF0004280
:1002100002EA0752CDE90042001C41F58011324646
:100220002B4600F0F2F903B0BDE8F08F40462146BE
:10023000F9E7001B61EB0201001C41F58013001877
:100240005B412018A2F5001747EB030140EAD57087
:10025000B6196D4111E06D084FEA360645EAC075E2
:100260004FEA0752001B61EB0201001C41F58011AF
:1002700049084FEA30000019514132462B4603B07D
:10028000BDE8F04F00F0B2B9009801224000002311
:10029000D0EB020263EBE073009821464FEAE07472
:1002A000B8EB000061EB0401E9E783F000435BE792
:1002B00081F0004158E72DE9FE4F81EA030404F084
:1002C000004421F0004100944FF0000B23F0004364
:1002D00050EA01045ED052EA03045BD0C3F30A542F
:1002E000C1F30A552C44A4F2F3340194A0FB025448
:1002F000C1F3130141F48011C3F3130343F48013DA
:1003000001FB024400FB034E840A970A44EA81542D
:1003100047EA8357A4FB076802958D0A05FB07850A
:100320004FEA932C04FB0C542705029D4FEA065814
:1003300047EA1637B5EB08056EEB070C870E920EF1
:1003400047EA811742EA8312A7FB0201B6EB0B01D1
:1003500064EB00042B0D43EA0C335E1844EB1C5095
:10036000DA465146E7FB0201C5F313044FEA0B33AB
:1003700043EA14534FEA0432019C43EA0603A4F112
:100380000C040294009CCDE900B400F03EF903B0E7
:10039000BDE8F08F00200146F9E72DE9F04D81EA34
:1003A000030404F0004B21F0004514464FF0000A0E
:1003B00023F0004150EA050220D054EA01021DD08A
:1003C000C5F30A570246C5F31303C1F31300C1F383
:1003D0000A5640F4801543F48013A7EB0608101B5F
:1003E000D64608F2FD3873EB050002D308F1010888
:1003F00001E092185B41B8F1000F03DA00200146DA
:10040000BDE8F08D00204FF48011064684460EE0D2
:10041000171B73EB050705D3121B63EB050306439C
:100420004CEA010C49084FEA300092185B4150EA4F
:100430000107EDD152EA030012D082EA040083EAF8
:100440000501084305D0101BAB4106D20122002351
:1004500006E000224FF0004302E06FF0010253106B
:100460001AEB06004CEB085110EB0A0041EB0B01B4
:10047000BDE8F04D00F0BAB80EB5C10F80EAE070EB
:100480000844CA07002140F233438DE80E000A46B3
:100490000B4600F0BAF803B000BD0EB540F2334190
:1004A00002910021CDE900110A460B4600F0ADF89B
:1004B00003B000BDC1F30A5210B5C1F3130140F2FD
:1004C000FF3341F480119A4201DA002010BD40F25E
:1004D00033439A42A2F2334203DC5242FFF722FE38
:1004E00010BD904010BD000030B5041E71F1000435
:1004F00004DB4FF00044404264EB0101141E73F131
:10050000000405DB1C464FF00043524263EB04033A
:100510008B4208BF824230BD30B5041E71F1000429
:1005200004DB4FF00044404264EB0101141E73F100
:10053000000405DB1C464FF00043524263EB04030A
:10054000994208BF904230BD2DE9F05F054600207A
:1005500092469B4688460646814640241BE0284634
:10056000414647462246FFF7DDFD53465A46C01A2C
:10057000914110D311461846224600F016F82D1A64
:1005800067EB01084F4622460120002100F00DF8DC
:1005900017EB00094E41201EA4F10104DFDC4846A0
:1005A00031462A464346BDE8F09F202A04DB203A24
:1005B00000FA02F1002070479140C2F1200320FAB6
:1005C00003F3194390407047202A06DBCB17203AEB
:1005D00041FA02F043EAE07306E041FA02F3D04048
:1005E000C2F12002914008431946704710B5141E0D
:1005F00073F1000408DA401C41F1000192185B41DC
:100600001A4301D120F0010010BD2DE9F04D9246B2
:100610009B4611B1B1FA81F202E0B0FA80F22032C9
:100620009046FFF7C2FF04460F4640EA0A0041EA3F
:100630000B0153465A46084313D0114653EA0100B2
:1006400019D0C8F140025046FFF76CFD05460E4632
:10065000504659464246FFF7A8FF084305D00120FF
:1006600004E020463946BDE8F08D0020054346EA07
:10067000E0762C4337430A986305E40AA0EB0800B0
:100680000022FD0A44EA47540A3002D50020014600
:10069000E9E7010510196941DDE9084500196941DB
:1006A000BDE8F04DA2E770B521F0004303430CD044
:1006B000C1F30A550024D5EB040564EB0403D617F7
:1006C000AD1AB34102DB0020014670BD201841EB9A
:1006D000025170BD2DE9FE4FC3F30A5701F00045EA
:1006E0000024C1F30A56C3F31303C1F3130143F407
:1006F000801312EB020AA64641F48011009543EBE9
:10070000030CA7F1010B16E0B0EB0A0061EB0C0142
:10071000071E71F1000707DA4FF00008D0EB080060
:1007200085F0004568EB0101171A73EB0107EBD365
:10073000761E001849415E45F6DA50EA010209D0FA
:10074000CDE900E5002213460296FFF75EFF03B0F5
:10075000BDE8F08F20460099F9E70000064C074DF0
:1007600006E0E06840F0010394E807009847103481
:10077000AC42F6D3FFF7BEFCD8460008F8460008A6
:1007800030B58C1810F8012B12F00F0301D110F8BE
:10079000013B120906D110F8012B03E010F8015BB0
:1007A00001F8015B5B1EF9D101E001F8013B521E2B
:1007B000FBD1A142E6D3002030BD000070B5044655
:1007C00000688168C943C9071CD1816821F0010113
:1007D000816000F0B3FB05460FE000BF00F0AEFB08
:1007E000401B022809D9A06A40F01000A062E06A0C
:1007F00040F00100E062012070BD20688068C043C5
:10080000C007EBD0002070BDF8B500260446009666
:1008100000688168C943C90728D0816841F0010197
:100820008160134813490068B0FBF1F000E0401EFE
:1008300000900028FBD100F081FB054611E000BFCD
:1008400000F07CFB401B02280BD9A06A40F010008E
:10085000A062E06A40F00100E06284F824600120B8
:10086000F8BD20688068C043C007E9D10020F8BD0A
:100870001000002040420F00FEE77047F8B500244A
:10088000009490F824202546012A12D0012280F8F5
:1008900024204A681F23072A0DD20668776B521E50
:1008A00002EB820293409F430B6893401F437763A0
:1008B00019E00220F8BD06680D2A0AD2376BD21F54
:1008C00002EB820293409F430B6893401F433763C0
:1008D00009E0F76A0D3A02EB820293409F430B68EE
:1008E00093401F43F7620A68072306680A2A0AD35F
:1008F000F7680A3A02EB420293409F438B689340A9
:100900001F43F76008E0376902EB420293409F43C0
:100910008B6893401F4337610A68102A01D0112A5F
:1009200020D1124B02689A4217D193681B0219D446
:10093000936843F4000393600968102912D10C49AD
:100940000C4A0968B1FBF2F101EB8101490000E0BA
:10095000491E00910029FBD104E0816A41F0200189
:100960008162012480F824502046F8BD0024014013
:100970001000002040420F000068C06C704700006B
:100980002DE9F0414FF0000704003D467ED0A06AFB
:10099000002628B9E66284F82460204600F07EF83C
:1009A0002046FFF70BFFA16A01F01001014304D0BC
:1009B000A06A40F01000A06268E0A16A21F48851AA
:1009C00041F00201A1626268E169E3680A4347EA13
:1009D00043010A43A1684FF48077B94208D0012946
:1009E00006D00021D4F814C0BCF1010F02D00AE0F7
:1009F0003946F7E7F3B1A36A43F02003A362E36A41
:100A000043F00103E3622368D3F804C02CF4694C7B
:100A10004CEA010CC3F804C023689968DFF870C081
:100A200001EA0C0111439960A168B9420BD0012978
:100A300009D00CE0DFF85CC0A3690CEB43330B4337
:100A400043F40061DFE7218A0D05A5F580152168D3
:100A5000CB6A23F470032B43CB62216889680E4B69
:100A60001940914208D1E662A16A21F0020141F0E9
:100A70000101A162BDE8F081A06A20F0020040F00F
:100A80001000A062E06A40F00100E0620120F1E79E
:100A9000FDF7E1FF00E0FFFFFE0E1FFF00B500685D
:100AA0000B4985B0884210D10A48816941F4007130
:100AB00081618069694600F40070049040200090D4
:100AC00003200190044800F04DF905B000BD00007E
:100AD0000024014000100240000801402DE9F843C5
:100AE00000260D460446009600F028FA804620684D
:100AF0008168C90508D5A06A40F02000A06284F88A
:100B000024600120BDE8F8834168C90503D4C06AA8
:100B100010F4700F26D0022000F0CCFA3849096892
:100B2000B1FBF0F72068036936490B424FEA6101D7
:100B30004FEAA1121BD1C3684FEA611C13EA0C0FE4
:100B400015D103690B4221D1C06810421ED1142077
:100B50001FE0681C06D045B300F0F0F9A0EB0800D8
:100B6000A84222D8206800688007F2D52AE00369ED
:100B70000B4202D1C168114206D0026922490A42E1
:100B800006D1C068084203D1542002E0292000E0C9
:100B9000FC204743009813E0681C0ED02DB100F0F4
:100BA000CDF9A0EB0800A84207D9A06A40F00400E4
:100BB000A06284F824600320A4E70098401C009001
:100BC000B842E9D321686FF012000860A06A40F4CF
:100BD0000070A06220688068C0F3424007280CD1F2
:100BE000E06850B9A06A20F48070A062A06AC004D6
:100BF00003D4A06A40F00100A062002082E7000058
:100C000010000020244992244992240070B5044623
:100C100090F8240001280DD0012084F824002046FB
:100C2000FFF7F2FD02004FF0000005D084F8240029
:100C3000104670BD022070BDA16A40F201239943A5
:100C400041F48071A1621F4D23681F49AB4218D146
:100C50000E6816F4702F14D0A66A46F48016A662A9
:100C60000E68760505D5A66A26F4005646F4805629
:100C7000A662A66AF6040AD5E66A26F00606E662C9
:100C800006E0A66A26F48016A6625E68E9E7E062DE
:100C900084F824006FF00200186020688368C3F3B2
:100CA0004243072B05D1A84208D1096811F4702FDF
:100CB00004D0816841F480118160B9E7816841F412
:100CC000A001F9E7002801400424014010B590F884
:100CD00021100024022903D00421816301243DE076
:100CE00001680A6822F00E020A6001680A6822F0B0
:100CF00001020A601A4A0168914201D1012121E0F2
:100D0000174A1432914201D110211BE0144A2832B3
:100D1000914201D1891515E0114A3C32914201D12D
:100D200089140FE00E4A5032914202D14FF48031C3
:100D300008E00B4A6432914202D14FF4801101E085
:100D40004FF08071064A083A5160012180F8211065
:100D5000002180F82010416B01B18847204610BD6A
:100D6000080002402DE9F84FDFF890A100220AF1B7
:100D7000040B144601274FF00F090BF1040E00BFBE
:100D80000B6807FA04F52B40AB4274D1DFF870C151
:100D90004E68A6EB0C0866452BD00DDC032E34D034
:100DA00005DC36B3012E19D0022E2FD11BE0112EF7
:100DB00016D0122E2AD119E0B8F5881F19D006DCFA
:100DC000B8F5803F15D0B8F5801F1FD111E0B8F5F8
:100DD000001F0ED0B8F5041F18D10AE0CA6815E04C
:100DE000CA68121D12E0CA6808320FE0CA680C32E5
:100DF0000CE08A682AB1012A4FF0080203D045614D
:100E000004E0042202E0056100E00022FF2B01D88B
:100E1000064601E000F104064FEA840501D9A5F178
:100E20002005D6F800C009FA05F82CEA080C02FAE9
:100E300005F54CEA050CC6F800C04D68ED0057D525
:100E4000304DAE6946F00106AE61AD6924F003068F
:100E500005F0010500952C4D06EB050CDCF808505B
:100E6000A6074FEA167809FA08F6B543274EB042AE
:100E700002D1002610E03BE0254EB04201D1012610
:100E80000AE0244EB04201D1022605E0224EB042D3
:100E900001D1032600E0042606FA08F62E43CCF81A
:100EA00008604D68DAF80060ED03554601D51E4331
:100EB00000E09E432E604D68DBF80060AD035D46A8
:100EC00001D51E4300E09E432E604D68DEF80060B1
:100ED000ED02754601D51E4300E09E432E604D682D
:100EE000AD020E4D2E6801D51E4300E09E432E60DC
:100EF000641C102CFFF444AFBDE8F88F00040140DF
:100F000000001110001002400000014000080140E4
:100F1000000C014000100140001401400C0401408D
:100F20008068084000D001207047C2684A40C26013
:100F300070470AB1016170470904FBE70148006886
:100F4000704700000C00002002480168491C016045
:100F5000704700000C000020074810B5016841F000
:100F600010010160032000F093F8002000F006F863
:100F700000F018F8002010BD0020024010B5044613
:100F800007484FF47A710068B0FBF1F000F00EFCF6
:100F900000222146501E00F05BF8002010BD00002A
:100FA00010000020224808B5816941F001018161EB
:100FB000816901F001010091C16941F08051C16175
:100FC000C06900F080500090052000F061F8002218
:100FD00011466FF00B0000F03BF8002211466FF055
:100FE0000A0000F035F8002211466FF0090000F009
:100FF0002FF800221146501F00F02AF80022114657
:10100000101F00F025F800221146901E00F020F875
:1010100000221146501E00F01BF80648416821F0DE
:10102000E0614160416841F00071416008BD00002D
:10103000001002400000014000F01F020121914019
:101040004009800000F1E020C0F800117047000066
:10105000F0B40E4B1B680C46C3F30223C3F1070523
:10106000042D00D90425191D072901D2002300E011
:10107000DB1E012606FA05F1491E214099409E40DB
:10108000761E16403143F0BC01F092BE0CED00E03C
:10109000064900F0070208684FF6FF03184040EACF
:1010A0000220034A10430860704700000CED00E086
:1010B0000000FA0510B529A401461DCC86B08DE8C4
:1010C0001D002AA02A4C006804900020012923D08A
:1010D00002293AD010291DD161682268D20119D5A0
:1010E000C1F38342C9031DF8020009D5616804AA4F
:1010F000C1F34041515C1F4AB2FBF1F1484301E0AA
:101100001D4948436168490204D440005FF003016F
:10111000B0FBF1F006B010BD226AC2F30121012933
:1011200003D1920701D5C803F4E7022905D1626A09
:10113000920702D549F64040ECE70329EAD121683D
:101140008903E7D54FF22440E4E700F04DF96168E8
:10115000C1F38131491C4900DAE7000002030405AC
:10116000060708090A0B0C0D0E0F101001020000F3
:101170000010024000127A0000093D002DE9F843FA
:1011800005460078354CC00754D0E0690026C00001
:1011900008D4E06940F08050E061E069012600F089
:1011A000805000902E480168C90512D4016880461D
:1011B00041F480710160FFF7C1FE074605E000BF02
:1011C000FFF7BCFEC01B642823D8D8F80000C00578
:1011D000F6D5206A10F4407021D0A98801F440713E
:1011E00081421CD0206A1F49012220F440700A600D
:1011F00000220A602062C00711D0FFF79FFE074659
:1012000041F2883808E000BFFFF798FEC11B414556
:1012100002D90320BDE8F883206A8007F4D5206A4C
:10122000696820F44070084320621EB1E06920F034
:101230008050E0612878800705D56068A96820F4AF
:101240004040084360602878C00605D56068E968BA
:1012500020F48000084360600020DBE700100240BB
:1012600000700040400442422DE9F047DFF83C8125
:1012700005460E46D8F8000000F00700B0420CD238
:10128000D8F8001021F007013143C8F80010D8F851
:10129000000000F00700B04263D12878444C80077A
:1012A00005D56068A96820F0F000084360602878E0
:1012B000C00745D06868012816D02168022816D0DA
:1012C000890700294DDA616821F00301014361605B
:1012D000FFF734FE6968074641F2883001290FD0D4
:1012E0000229814619D027E021688903E9E78901AD
:1012F000E7E700BFFFF722FEC11B494501D918E00F
:1013000081466068C0F381000128F3D118E000BF76
:10131000FFF714FEC11B49450BD86068C0F381007C
:101320000228F5D10CE000BFFFF708FEC11B4945BC
:1013300002D90320BDE8F087606810F00C0FF3D1EC
:10134000D8F80010404601F00701B1420BD90168FE
:1013500021F0070131430160006800F00700B0424E
:1013600001D00120E6E72878400705D56068E968E4
:1013700020F4E060084360602878000706D56068C4
:10138000296920F4605040EAC100606000F03CF838
:101390006168084AC1F30311515CC84006490860FE
:1013A0000020FFF7EBFD0020C4E700000020024012
:1013B000001002401046000810000020014800689C
:1013C0007047000010000020044805490068496883
:1013D000044AC1F30221515CC8407047100000204C
:1013E000001002402046000804480549006849688A
:1013F000044AC1F3C221515CC8407047100000206C
:10140000001002402046000810B512A385B00FCB93
:101410008DE80F0013A0144B006804905A6813481D
:1014200002F00C0104290FD008290DD1C2F3834426
:10143000D2031DF8041009D55A6804ABC2F3404228
:101440009A5CB0FBF2F0484305B010BD0848484331
:10145000FAE7000002030405060708090A0B0C0D51
:101460000E0F1010010200000010024000127A005E
:1014700000093D002DE9F84F04460078B94DC0073A
:1014800048D06868C0F38100012807D06868C0F3BD
:101490008100022809D16868C00306D52868800346
:1014A00038D5606800286FD034E06068B0F5803FC0
:1014B0000BD010B1B0F5A02F11D0286820F48030E7
:1014C0002860286820F4802002E0286840F48030FA
:1014D0002860606888B1FFF731FD064609E028689A
:1014E00040F480202860F0E7FFF728FD801B642887
:1014F00075D828688003F7D50CE0FFF71FFD064676
:1015000005E000BFFFF71AFD801B6428F0D82868AB
:101510008003F7D42078944E80074FF001094FF0F4
:1015200000083BD5686810F00C0F07D06868C0F35E
:101530008100022809D16868C00306D428688007A2
:1015400014D5206901281FD110E02069B0B1C6F878
:101550000090FFF7F3FC074605E000BFFFF7EEFC45
:10156000C01B0228C4D828688007F7D5286861699D
:1015700020F0F80040EAC10028600FE0C6F80080C3
:10158000FFF7DCFC074606E0E9E000BFFFF7D6FC0A
:10159000C01B022823D828688007F7D420780007CA
:1015A0002CD57248A169D9B1C0F80090FFF7C6FCEC
:1015B000074604E0FFF7C2FCC01B02280FD8686A88
:1015C0008007F7D56A484FF4FA510068B0FBF1F094
:1015D000009000BF0098411E0091FAD20EE080E01A
:1015E000C0F80080FFF7AAFC074604E0FFF7A6FC5E
:1015F000C01B022875D8686A8007F7D42078400796
:1016000060D5E8690027C00008D4E86940F0805040
:10161000E861E869012700F08050009055480168B2
:10162000C90513D40168834641F480710160FFF756
:1016300085FC824606E000BFFFF780FCA0EB0A00B5
:1016400064284ED8DBF80000C005F5D5E068012815
:101650000AD008B1052813D0286A20F001002862BA
:10166000286A20F0040002E0286A40F001002862A5
:10167000E06841F2883B98B1FFF760FC82460BE0DE
:10168000286A40F004002862EEE700BFFFF756FC2E
:10169000A0EB0A0159455AD8286A8007F6D50CE014
:1016A000FFF74CFC824605E0FFF748FCA0EB0A017F
:1016B00059454CD8286A8007F6D41FB1E86920F054
:1016C0008050E861E06988B36968C1F3810102294B
:1016D00045D00228C6F8608004D0FFF72FFC0446EE
:1016E00038E034E0FFF72AFC074604E0FFF726FC69
:1016F000C01B02282BD828688001F7D4206AB0F5D7
:10170000803F05D16868A16820F400300843686014
:10171000D4E908010843696821F47411084368603A
:10172000C6F86090FFF70AFC044606E015E000BF2B
:10173000FFF704FC001B022809D828688001F7D5B0
:101740000BE000BFFFF7FAFB001B022802D90320C1
:10175000BDE8F88F28688001F4D40020F8E7012064
:10176000F6E70000001002400000424280044242BE
:1017700010000020007000404FF0E02104280869AC
:1017800003D020F004000861704740F00400FAE73D
:1017900010B5FFF7D9FB04488168002902D08168A1
:1017A000491E816010BD00000000002010B5401EE1
:1017B000B0F1807F01D3012010BD4FF0E0246061C3
:1017C0000F21601701F0F4FA0020A06107202061CA
:1017D000002010BD10B5FFF7DBFF10BD704770474C
:1017E00010B590F83C20012A25D0012280F83C2039
:1017F000CA688C6822F4407222434C6822F48062EA
:1018000022430C6822F4006222430C6922F48052C5
:1018100022434C6922F4005222438C6922F4804214
:10182000224322F40041026800232143516480F8DE
:101830003C30002010BD022010BD30B590F83C2097
:10184000012A20D0012280F83C20022380F83D307C
:1018500003685C6824F070045C6003685C680D6871
:101860002C435C6003689C6824F080049C600368DF
:101870009C6849680C439C6080F83D20002180F8FA
:101880003C10084630BD022030BD10B5040003D026
:1018900094F83D0010B107E0012010BD002084F84D
:1018A0003C00204600F00CF8022084F83D00211D89
:1018B000206801F07BFE012084F83D00002010BD6F
:1018C00008B500680649884208D10648C16941F058
:1018D0000201C161C06900F00200009008BD000073
:1018E00000040040001002400168CA6842F0010292
:1018F000CA600068016841F0010101600020704782
:1019000070B5044690F83C00012817D0012584F8F2
:101910003C50022084F83D002068826822F0770263
:1019200022F47F4282600868502837D00DDC2028DE
:1019300059D005DC88B3102841D151E0022070BD98
:10194000302853D040283AD13FE060282ED070286C
:101950000BD0B0F5805F03D0B0F5005F2FD110E061
:101960002068816821F0070115E0CB68D1E90121E9
:10197000206801F05CFE2168886840F0770088608C
:101980001DE0CB68D1E90121206801F050FE2068FC
:10199000816841F48041816011E01EE0CA684968B5
:1019A000206801F0F9FE5021206806E0CA68496805
:1019B000206801F002FF6021206801F042FE84F8F7
:1019C0003D50002084F83C0070BDCA68496820681A
:1019D00001F0E2FE40212068EFE700212068ECE7FB
:1019E00010212068E9E720212068E6E730212068FF
:1019F000E3E72DE9F0410D46040003D094F83D00E3
:101A000018B108E00120BDE8F081002084F83C0016
:101A1000204600F039F8022084F83D0020688168F3
:101A200021F007018160211D206801F0BFFD2268BF
:101A300090689169166A2B68AF69034340F20330DE
:101A4000814341EA0721A868EF6908434FF6FC414A
:101A50008843E96840EA0720014328692F6A0001AA
:101A600040EA0730084369686D6926F0AA0646EA2D
:101A70000515294393602268906120680162012066
:101A800084F83D000020BEE700B5026800211D4833
:101A900085B0B2F1804F1DD01B4B9A4218D1C2695C
:101AA00042F00402C261C069029100F00400049097
:101AB000C020CDE9000169461448FFF753F9002220
:101AC00011461E20FFF7C4FA5FF01E00FFF7B4FABC
:101AD00005B000BDC26942F00102C261C069029155
:101AE00000F0010004900320CDE900016946084898
:101AF000FFF738F9012200211C20FFF7A9FA1C206A
:101B0000E4E700000010024000080040000C014023
:101B10000008014010B50446006889B104294FF05F
:101B2000010216D0002101F077FD01220421206876
:101B300001F072FD2068C16841F00201C1600BE054
:101B40000122002101F068FD2068C16841F0020116
:101B500006E0042101F060FD2068C16841F0040145
:101B6000C1602068016841F001010160002010BDE2
:101B7000704770B50446006801694FF00005C9431D
:101B8000890715D4C168C943890711D4E91E0161C9
:101B900001202077206880698007204602D0FFF767
:101BA000E7FF04E000F0AEF8204600F043F92577A7
:101BB00020680169C943490717D4C168C943490767
:101BC00013D46FF00401016102202077206880693E
:101BD00010F4407F204602D0FFF7CAFF04E000F077
:101BE00091F8204600F026F9257720680169C9435D
:101BF000090716D4C168C943090712D46FF0080158
:101C00000161042020772068C0698007204602D047
:101C1000FFF7AEFF04E000F075F8204600F00AF987
:101C2000257720680169C943C90617D4C168C9432B
:101C3000C90613D46FF010010161082020772068D5
:101C4000C06910F4407F204602D0FFF791FF04E006
:101C500000F058F8204600F0EDF82577206801697B
:101C6000C943C90708D1C168C943C90704D1891E3E
:101C70000161204600F0F8F820680169C9430906AF
:101C800009D4C168C943090605D46FF08001016118
:101C90002046FFF7A3FD20680169C943490609D41E
:101CA000C168C943490605D46FF04001016120466F
:101CB00000F0F8F820680169C94389060BD4C168AF
:101CC000C943890607D46FF0200101612046BDE8B1
:101CD0007040FFF784BD70BD1FB50068074988429A
:101CE0000AD14FF41060009002200190032003906D
:101CF00069460348FFF736F81FBD0000002C01407D
:101D000000080140704770B5044690F83C000D464D
:101D100001280DD0012684F83C60022084F83D00A3
:101D200042B1042A18D0082A2AD00C2A4DD139E011
:101D3000022070BD206801F08DFC2068816941F0AF
:101D4000080181612068816921F0040181612068B6
:101D500081692A69114311E0206801F0A3FC206821
:101D6000816941F4006181612068816921F48061A9
:101D70008161206881692A6941EA0221816124E048
:101D8000206801F0BBFC2068C16941F00801C16115
:101D90002068C16921F00401C1612068C1692A6914
:101DA000114311E0206801F0D5FC2068C16941F4BD
:101DB0000061C1612068C16921F48061C16120684E
:101DC000C1692A6941EA0221C16184F83D600020AD
:101DD00084F83C0070BD10B5040003D094F83D00B9
:101DE00010B107E0012010BD002084F83C0020461F
:101DF00000F00CF8022084F83D00211D206801F05D
:101E0000D5FB012084F83D00002010BD08B5006816
:101E10000649884208D10648816941F40061816120
:101E2000806900F40060009008BD0000002C0140B3
:101E3000001002407047000010B5044600680122FF
:101E400001F0EAFB07492068884203D1416C41F464
:101E5000004141642068016841F0010101600020F7
:101E600010BD0000002C014030B40D4C002104F1E5
:101E70001005236855F82120824202D154F8213000
:101E800003E0491C89B20429F4D3824205D1D3F876
:101E90008000002801D030BC004730BC70470000F3
:101EA000400300207047704770B502680446106810
:101EB000D168536910F00F0F51D003F0010501F400
:101EC000907635435DD0C20705D0CA0503D5E26BD5
:101ED00042F00102E263420705D5DA0703D0E26B64
:101EE00042F00202E263820705D5DA0703D0E26B13
:101EF00042F00402E263020705D5DA0703D0E26B81
:101F000042F00802E263E26B002A34D0800604D576
:101F1000880602D5204601F078FC20684069E16B14
:101F2000C0F3801001F008010143204624D001F0E5
:101F30005EFC2068416949061AD5416921F04001DB
:101F40004161606BA0B11B494163606BFEF7BEFE4F
:101F5000002810D0606B416BBDE8704008478306D5
:101F60000FD58B060DD52046BDE8704001F04DBC65
:101F70002046FFF798FF70BDFFF795FF0020E06354
:101F800070BD030606D50B0604D52046BDE870409B
:101F900001F03EBD4006F3D54806F1D5D168204694
:101FA00021F04001D160202184F8391000F082F83E
:101FB00070BD0000DF37000870B5040004D094F84D
:101FC0003900002510B106E0012070BD84F83850BA
:101FD000204600F023F8242084F839002068C168E6
:101FE00021F40051C160204601F05AFC20680169CB
:101FF00021F4904101612068416921F02A01416189
:102000002068C16841F40051C160E563202084F874
:10201000390084F83A00002070BD000010B5006857
:10202000114986B088421DD11048816941F4804130
:10203000816180690E4C00F4804004904FF4007080
:102040000090022001900320039069462046FEF78D
:1020500089FE00212015CDE9000102916946204644
:10206000FEF780FE06B010BD0038014000100240AF
:1020700000080140704790F83930202B18D1A9B1E1
:10208000A2B190F83830012B12D001628284C28450
:102090000021C163212280F8392080F838100068BF
:1020A000C16841F08001C160002070470120704785
:1020B000022070470E4AD2E90012824211D101205B
:1020C00081F820004A88486910444861CA689042F3
:1020D00001D38868486191F8210018B1022081F885
:1020E0002100704708884A88801A088070470000DD
:1020F00000010020FEE70020401CC0B20A28FBD3EC
:10210000704770B50D46044600F0D8F8204600F040
:10211000A9F800F01DF9284600F0A4F800F018F91D
:1021200000F0CCF8641CE0B200F09CF800F010F96C
:10213000002000F063F8044600F0EAF8204670BD85
:1021400070B50C4C0025C4F8A0510B48016821F073
:10215000F0010160016841F030010160C4F8A45150
:1021600004F5D074FFF7C7FF01202060FFF7C3FF1D
:10217000256070BD00802142040C01400D4810B55F
:10218000816986B041F0080181618069012400F015
:10219000080004904FF44070CDE9000469460648F9
:1021A0000394FEF7DFFD0548C0F8A041C0F8A44144
:1021B00006B010BD00100240000C0140008021421A
:1021C00070B50C4C0025C4F8A0510B48016821F0F3
:1021D000F0010160016841F0300101600126C4F89E
:1021E000A46104F5D074FFF786FF2660FFF783FF34
:1021F000256070BD00802142040C01402DE9F047AC
:10220000814616480024016821F0F0010160016850
:1022100041F080010160124E254627464FF001082B
:10222000C6F8A071FFF767FFC6F8A0816006040E2C
:10223000D6F8240108B1641CE4B2FFF75CFF6D1C02
:10224000EDB2082DECD3B9F1000F02D0FFF778FF03
:1022500001E0FFF7B5FF2046BDE8F087040C014020
:10226000008021422DE9F04106461248016821F024
:10227000F0010160016841F0300101600E4C00275F
:10228000C4F8A0713D464FF00108F009C4F8A4015C
:102290007006060EFFF72FFFC4F8A081FFF72BFF93
:1022A000C4F8A071FFF727FF6D1CEDB2082DECD329
:1022B000BDE8F081040C01400080214270B5124855
:1022C000016821F0F0010160016841F03001016016
:1022D0000E4C0120C4F8A401D4F8241149B1C4F86B
:1022E000A001FFF708FF0025C4F8A451D4F8240189
:1022F00008B1002070BDFFF7FEFEFFF7FCFEC4F83A
:10230000A051012070BD0000040C0140008021425A
:102310000D4810B5016821F0F0010160016841F03D
:1023200030010160094C0020C4F8A001C4F8A401E8
:1023300004F5D074FFF7DFFE012020606060BDE887
:102340001040FFF7D8BE0000040C0140008021427D
:1023500070B512480024016821F0F00101600168A5
:1023600041F0800101600E4D0126C5F8A461FFF720
:10237000C2FEC5F8A06107E0641CE4B2322C03D9A8
:10238000FFF7C6FF002070BDFFF7B5FED5F82401AA
:102390000028F1D1C5F8A001012070BD040C014056
:1023A0000080214210B51446FFF7ABFE20700120DB
:1023B00010BDF8B515461C460E4607466A46FFF79F
:1023C000F1FF01209DF80010A8400CB1084301E086
:1023D00021EA0000C2B28DF800203146384600F0F4
:1023E0002BF8F8BD2DE9F84314461D460F468046EC
:1023F0006A46089EFFF7D6FF00281BD0611CFF200D
:10240000C4F1080200FA01F12A44521ED0400143EF
:10241000C5F108008640F2B2C4F10700C2409DF841
:102420000000084010438DF80000C2B23946404613
:1024300000F002F8BDE8F88307B502AB012200F016
:1024400001F80EBD2DE9F0411E46154688460746A7
:102450000024FFF733FF3846FFF704FFFFF778FF4C
:102460004046FFF7FFFEFFF773FF06E0305DFFF722
:10247000F9FEFFF76DFF641CE4B2AC42F6D3FFF740
:1024800047FF0120BDE8F08170B5054614463C21A8
:10249000D020FFF736FE06463B21D020FFF731FE65
:1024A00006EB002028803E21D020FFF72AFE0646BA
:1024B0003D21D020FFF725FE06EB0020688040215B
:1024C000D020FFF71EFE06463F21D020FFF719FE61
:1024D00006EB0020A8804221D020FFF712FE412108
:1024E000D020FFF70EFE4621D020FFF70AFE05465A
:1024F0004521D020FFF705FE05EB00202080442178
:10250000D020FFF7FEFD05464321D020FFF7F9FD5F
:1025100005EB002060804821D020FFF7F2FD054642
:102520004721D020FFF7EDFD05EB0020A08070BD16
:1025300010B5022000F011F8032000F020F8002070
:1025400000F014F8002000F02FF8002000F026F82A
:10255000BDE81040002000F01BB808B50323009030
:1025600002226B21D020FFF73DFF08BD08B50223F2
:10257000009004221C21D020FFF734FF08BD08B5CD
:102580000223009004221B21D020FFF72BFF08BD5F
:10259000034601223721D020FFF70BBF0346052257
:1025A0006A21D020FFF705BF034606226B21D02009
:1025B000FFF7FFBE3EB51348114901240160002119
:1025C0008160C16041614FF460220461C261416079
:1025D000FEF7D6F918B143210BA001F0BCFA062092
:1025E000CDE900040720029069460648FEF746F947
:1025F000002803D04D2104A001F0ADFA3EBD00003B
:1026000000240140340100202E2E2F5372632F61CD
:1026100064632E63000000002DE9F0412A4886B073
:10262000816941F020018161816901F020010491FB
:10263000816941F004018161816901F00401049123
:10264000816941F0080181618069204F00F0080034
:1026500048F210040490002221463846FEF769FC37
:10266000DFF86C8000224FF238314046FEF761FC03
:102670000125CDE9004500240226CDE90246694640
:102680003846FEF76FFB2020CDE900046946384646
:102690000294FEF767FB4FF23800CDE90005CDE963
:1026A000024669464046FEF75DFB4FF440700090DD
:1026B00001AA112082E8310069464046FEF752FB2C
:1026C00006B0BDE8F08100000010024000080140A3
:1026D000000C014010B52A4890B028490024C0E9F8
:1026E000001441F61F41C0E9024104614461846164
:1026F000FFF771FB18B1462122A001F02CFA0E94CD
:102700000EA91F480F94FFF798F818B14D211DA08E
:1027100001F021FA6020CDE90004029403940494AE
:1027200005940022694616480694FFF7ECFA18B1A2
:10273000592114A001F00FFA0C2269461048FFF746
:10274000E2FA18B15E210FA001F005FA079408948F
:1027500009944FF400500A94CDE90B4007A90848AA
:102760000D94FFF73DF818B16A2106A001F0F3F9C6
:102770000348FFF7B1FA10B010BD0000002C014073
:10278000640100202E2E2F5372632F74696D2E6307
:102790000000000010B517488CB04FF080410024B5
:1027A000C0E900144FF6FF71C0E902410461846181
:1027B0000320CDE900040120CDE902040494CDE911
:1027C0000540079469460B480894FFF712F918B1C1
:1027D000872109A001F0BFF9099409A905480A94C5
:1027E000FFF72BF8002803D08E2103A001F0B3F9E6
:1027F0000CB010BDA40100202E2E2F5372632F7435
:10280000696D2E630000000010B5184886B01649A7
:10281000016041F61F410024C0E901146321C0E9B1
:1028200003148461FFF731F818B1A02110A001F062
:1028300092F94FF48050009069460C48FFF760F819
:1028400018B1A6210AA001F086F9049404A907484A
:102850000594FEF7F2FF002803D0AD2104A001F09B
:102860007AF906B010BD000000040040E401002029
:102870002E2E2F5372632F74696D2E63000000009B
:1028800010B518488CB016490024C0E900144FF662
:10289000FF71C0E90241046184610320CDE90004B5
:1028A00001210291CDE90340CDE90541CDE9074081
:1028B00069460C48FFF79DF818B1C8210AA001F03D
:1028C0004AF9099409A907480A94FEF7B6FF0028B7
:1028D00003D0CF2104A001F03EF90CB010BD0000E0
:1028E00000080040240200202E2E2F5372632F7404
:1028F000696D2E63000000000D4810B50B490160A2
:102900004FF4E1314160002181600C22C160C0E9D7
:1029100004128161C161FFF74FFB002805D0BDE8BB
:102920001040422103A001F016B910BD003801404B
:10293000640200202E2E2F5372632F757361727400
:102940002E6300002DE9F05F082001F047FECB4820
:1029500000244021006804604460C948FDF7F9FB89
:10296000C74820214030FDF7F4FBC6480021002372
:10297000C0E90411C0E90611C0E90811C0E90A1153
:10298000C0E90C11C0E90E11C0E91011C0E9121123
:10299000C0E91411C0E91611C0E91811C0E91A11F3
:1029A000C0E91C11C0E91E1100F18001B84FC1E956
:1029B0000033C1E90233C1E90433C1E90633C1E997
:1029C0000833C1E90A33C1E90C33C1E90E33C1E967
:1029D0001033C1E9123344808480C480048144816F
:1029E00084810470A94A3988A748AB4E42F8210077
:1029F000A84A46F82120491CDFF8A0B239804FF6DA
:102A0000FF7AC0E902AB40F24A420261C0E9004BE2
:102A10008461C46104620725446205754575092215
:102A20008275C275C0F88040C0F88440C0F8884004
:102A3000984AC0F88C40C0F890401268514613681C
:102A400043F080031360934A0068126890629148D3
:102A50000068C1628F48C1601821FFF75BF88D489C
:102A600090F83D100229FBD090F83D100229FBD0D0
:102A7000864A39888A488B4C42F8210046F8214022
:102A8000491C39804FF00008C0E9008BC0F818805D
:102A9000C0F81C80C0F8208040F24A43C0F824806F
:102AA0000361C0E902AB0575457509258575414689
:102AB000C575C0E92081C0F88810C0F88C10C0F836
:102AC00090102168B1465E460B68524643F0800381
:102AD0000B600168206881622068C262182120466C
:102AE000E260FFF717F800BF94F83D000228FBD022
:102AF00094F83D000228FBD06C496B486D4A086091
:102B00006B4911606C4AC0F80880C0E900284FF09A
:102B1000010BC0F80CB0C0E904B8C0F82080C0F8C0
:102B20002480C0F82880C0F82C80C0F83080C0F81D
:102B30003480C1F8048080F81C8080F81D804446F1
:102B40000846FEF763F8DFF844A139885B4B5C4820
:102B50004AF8213049F82100491C398019461A46A3
:102B60000C604E6041F61F419160D66042F21072D7
:102B70001A611A46B8469461D46114625462012203
:102B80001A751A46557595750122DA751A46C2F8F6
:102B90008040C2F88440C2F88840C2F88C40C2F835
:102BA00090400268136843F080031360434A03684F
:102BB00012689A620268D162C1600268491051636A
:102BC000006801643E4F00BF97F83D000228FBD02B
:102BD00000213B48FFF730F997F83D000228FBD071
:102BE0000C213748FFF728F9B8F800203548364956
:102BF0004AF8220049F82210521CA8F8002030227E
:102C00000460C0E901628461C461304B04624462C3
:102C1000C0E90363057545758575C575C0F88040C5
:102C2000C0F88440C0F88840C0F88C40C0F890409C
:102C30000B681D6845F080051D600D680368AB6278
:102C40000B68DA62CA602249C0F880101E48FEF79D
:102C50004BFE00F059FF0B49094A0020403281F831
:102C600000B0C2E904000648448684858486C48591
:102C7000C48604860487BDE8F09F0000284600084B
:102C8000A802002018000020F403002040030020C8
:102C9000FE000020240200205003002000A24A046D
:102CA00088040020A401002008030020F400002074
:102CB00034010020F8000020FC0000206003002008
:102CC000640100201C050020E4010020CB6B1600ED
:102CD000E92E0008F0B5304C304E314F206893B0EB
:102CE00000254079E8BBD6E9040100223B46FDF708
:102CF000FBFB0BD2FFF742FAFFF71AFCD6E90401FF
:102D000000223B46FDF730FAC6E90401224A0020C2
:102D10000FA9121D135C0B54401C1028FADB21482C
:102D2000B0F90230B0F9042007A800F015FF002028
:102D300007A96A460B5C1354401C1828FADB0D20C7
:102D40008DF818000A208DF819008DF81A501046D9
:102D500001F0A4FB114E144A403E1B213061F18367
:102D600000E00DE000F085FE0F4F388818B1B58304
:102D7000384600F0AFFE97F8200008B17888B0839D
:102D8000206821684079401CC0B24871092801D9E7
:102D90002068457113B0F0BD28460008E802002005
:102DA0000000F03F18000020E8050020FEE7704713
:102DB0000907090E002806DA00F00F0000F1E020F4
:102DC00080F8141D704700F1E02080F8001470476F
:102DD00070477047401EB0F1807F01D301207047DB
:102DE0004FF0E0214861054AF02082F8140D0020E0
:102DF0008861072008610020704700000FE000E0B4
:102E000010B5FEF7A1F8BDE81040FEF7E3BC30B501
:102E100093B001210804CDE9001000250295022499
:102E20000491CDE907404FF4E01009906846FEF7A1
:102E300021FB00B1FEE70AA90F2081E831004FF421
:102E40008060CDE90D0502210AA8FEF70DFA00B158
:102E5000FEE74FF4004011900F940FA8FEF78EF993
:102E600000B1FEE7FEF7AAFA4FF47A71B0FBF1F079
:102E7000FEF79CFC0420FEF77FFC00221146501E4A
:102E8000FEF7E6F813B030BD0D48016841F00101CE
:102E9000016041680B4A1140416001680A4A1140D3
:102EA0000160016821F480210160416821F4FE0184
:102EB00041604FF41F0181600449C00308607047FE
:102EC000001002400000FFF8FFFFF6FE08ED00E0F2
:102ED0000148FEF74EBE0000A40100200148FEF7A5
:102EE00048BE0000E40100202DE9F05FFB4E002207
:102EF000FB4BD6E90001FDF737F90022F94BC6E993
:102F00000001FDF709FB06D20020C6E900001021F0
:102F1000F548FEF70AF8F5480068F54CF5492084B5
:102F20000880F248002101600007406AF24960848D
:102F300008804FF080410020486204F13402B4F967
:102F40003210A2F10800FFF79FFAB4F93200FDF742
:102F500093FAEA4AEA4BFDF7AEF9EA4AEA4BFDF783
:102F600003F9EA4AC2E90001B4F92C00FDF784FA3A
:102F7000E74AC2E90001B4F92E00FDF77DFAE54AFF
:102F800081468A46C2E90001B4F93000FDF774FABF
:102F9000E14A05460E46C2E90001B4F93600FDF7E4
:102FA0006BFADFF878B3DE4B5A46FDF784F9DD4A59
:102FB00007468846C2E90001B4F93400FDF75CFA1F
:102FC0005A46D74BFDF777F9D74AC2E90001B4F961
:102FD0003800FDF751FA5A46D14BFDF76CF9D34A48
:102FE0003346C2E900012A4648465146FDF7D5F965
:102FF00001F08CF84FF06632CD4BFDF75CF9CD4A0D
:10300000DFF83493CD4BC2E900014A46FDF753F98E
:1030100005460E464A46CA4B38464146FDF74BF92F
:10302000C84FD7E90023FDF79FF8C74AC74BFDF704
:1030300042F92A463346FDF797F8DFF814A3C7E9AB
:103040000001C44FC44E0025CAE90001C3483968D5
:10305000FDF744FD20B9C148FDF78EFC26F81500A8
:103060006D1C2D042D0CF1D03088FDF716FAC4E943
:103070000001BA48FDF7CAFDA04600202468D8F830
:1030800004700146064622463B46FDF76DF8B44DF6
:10309000761C4FF001090A2EF5DBB24AB24BFDF760
:1030A0000AF9B24AB24BFDF706F9B24AC2E9000189
:1030B00020218D48FDF734FFFDF7EFF9444600224B
:1030C0001346C4E90201FDF70FFA02D1288B401C18
:1030D00009E0B5F91800022803DBA5F81A900020D2
:1030E00001E0002068832883A349B5F91A00DFF8BE
:1030F0008CB2DFF88C820880012805D19BF8001083
:10310000F1B300218BF80010864900229D4BD1E9D4
:103110000001FDF7D0F80F468D4906460022D1E99F
:103120000001994BFDF7C7F832463B46FDF71CF806
:10313000C8E90001C246DFF82C82D5E90001424609
:10314000924BFDF7B8F806466B480F460188694870
:10315000008808448E490988401A00B2FDF78CF9AE
:1031600042468C4BFDF7A7F832463B46FCF7FCFF86
:10317000894FC5E900010B460246C7E9000100E09E
:103180000DE0D5E90201FCF7EFFF0022834BC5E912
:103190000201FDF7C1F904D2002080490DE00121B0
:1031A000B0E7D5E9020100227D4BFDF79DF902D27F
:1031B00000207B4901E0D5E902014FF03332794B21
:1031C000FDF779F806460D4603CF0022764BFDF752
:1031D00072F832462B46FCF7C7FF744A884607460A
:1031E000C2E9000151490022714BD1E90001FDF70C
:1031F00062F80E46704905460022D1E900016D4B88
:10320000FDF759F833462A46FCF7AEFF6B4A0546F0
:103210000E46C2E90001DAE900013A464346FCF7EE
:10322000A3FF074688462A463346FDF73EF8DFF8F7
:1032300090A12A463346CAE9000138464146FCF7C8
:1032400093FF604E424D0022C6E90001D5E900011E
:103250005D4BFDF761F906D3D5E9000100225B4B18
:10326000FDF742F902D28BF8009002E09BF80000D3
:1032700030B10021CAF80010CAF80410C6E90011E4
:103280005546DFF84C91D5E9000100224B46FDF789
:1032900043F902D2002049460BE0D5E900010022A3
:1032A0004C4BFDF721F902D200204A4901E0D5E953
:1032B0000001DFF824A1DFF824B152465B46FCF799
:1032C000FAFF01F033F805460F4601F07DF9DFF80B
:1032D000108110B100252F468CE083E028000020EB
:1032E0000000F03F00006940000801402408004051
:1032F000A80200201A0000201C0000202575029A58
:10330000081B9E3FCDCCCCCCCCD47640780000209E
:1033100060000020300000203800002008AC1C5A5B
:10332000643BAF3F480000204000002050000020D8
:1033300066A64C40900000207B14AE47E17A943F93
:10334000E17A743F700000205C8FC2F5285CEF3F8B
:10335000E0000020F0000020FC00002034010020EC
:10336000E80200209A9999999999B93F4CC3F011B4
:103370003125823FC00000202000002018000020DE
:10338000A00000200080304000C072409999E93FC1
:10339000240000209999C93FD00000200088C34034
:1033A0000088C3C03333F33F00007940A8000020F9
:1033B000000014C000002440B8000020B00000202D
:1033C000D8000020C800002000004440000044C095
:1033D00000F4BA4000F4BAC0F2B0506B9A778C3F58
:1033E0001E0000200022664B2846394601F00CF8EA
:1033F00005460F460022134628463946FDF774F865
:1034000006D287F000412846FDF754F8404203E019
:1034100028463946FDF74EF800B2A8F80000D6E974
:103420000001454600224B46FDF776F802D2002007
:1034300054490BE0D6E900010022534BFDF754F844
:1034400002D20020504901E0D6E9000152465B4615
:10345000FCF731FF00F06AFF06460F4601F0B4F8B2
:1034600010B10026374607E00022454B304639466A
:1034700000F0CAFF06460F46002213463046394682
:10348000FDF732F8304605D287F00041FDF712F81B
:10349000404202E03946FDF70DF806B23B483D4A8E
:1034A0003D4B06803A4864273C49002E0DDDD0F89C
:1034B00000C01FFA8CFC2CF4405C4CF4805CA2F839
:1034C00000C0C0F800C066851BE00BD1D0F800C07A
:1034D0001FFA8CFC2CF4405CA2F800C0C0F800C0BD
:1034E00026850EE0C6F10006A661D0F800C01FFADE
:1034F0008CFC2CF4405C4CF4005CA2F800C0C0F8DA
:1035000000C0D1F824C066450CD04E62002E09DB05
:10351000D3F800C0DCF82C8006FB08F6B6FBF7F603
:10352000CCF84060B5F90050002D13DD0668C6F3F5
:103530000D0646F4804616800660E58411E08D6134
:10354000002D05DB1868C16A4D43B5FBF7F14163F7
:10355000BDE8F09F09D10668C6F30D061680066027
:10356000A58488698542EAD1F2E76D426561046805
:10357000C4F30D0444F4004414800460F1E7000037
:103580000000F04000F4BA4000F4BAC0220000206D
:103590000C0C014014000020640100206003002096
:1035A0000148FEF7E6BA000024020020F0B50268E8
:1035B000164B174C174D4FF08047984205D0B84234
:1035C00003D0A04201D0A84203D122F070064A687D
:1035D0003243984205D0B84203D0A04201D0A8425D
:1035E00003D122F44074CA68224322F080044A695D
:1035F000224302608A68C2620A688262984201D1EC
:103600000969016301214161F0BD0000002C014006
:10361000000400400008004010B50123046A8B40FC
:103620009C430462036A8A401343036210BD10B5D1
:10363000846842EA032224F47F440A4322438260DE
:1036400010BD826822F070020A4342F007018160D7
:103650007047000030B5026A22F001020262026A7D
:103660004368846924F073050C682C4322F002053A
:103670008A682A430A4DA8420BD122F00805CA687D
:1036800023F440732A434D6922F004021D438B69E1
:103690002B434360846149684163026230BD00008E
:1036A000002C014030B5026A22F010020262026A68
:1036B000436884690D6824F4E64444EA05248D686F
:1036C00022F0200242EA05120B4DA8420ED1CD682D
:1036D00022F0800242EA05124D6923F4406343EA76
:1036E00085038D6922F0400243EA850343608461CB
:1036F00049688163026230BD002C014030B5026A26
:1037000022F480720262036A4268C46923F400737F
:1037100024F073050C682C438D6843EA05230C4D97
:10372000A8420ED1CD6823F4006343EA05234D6916
:1037300022F4405242EA05128D6923F4806342EA82
:1037400005124260C4614968C163036230BD000074
:10375000002C014030B5026A22F480520262046AF1
:103760004268C3690D6823F4E64343EA05238D6884
:1037700024F4005444EA0534064DA84204D14D69AE
:1037800022F4804242EA85124260C36149680164C2
:10379000046230BD002C014010B5036A046A24F0B5
:1037A00001040462846924F0F00444EA021423F062
:1037B0000A020A438461026210BD10B5036A23F055
:1037C000100303628369046A23F4704343EA0232FC
:1037D00024F0A00343EA01118261016210BD10B51B
:1037E000406A0021C185C184FEF75DFB10BD016800
:1037F000CA6822F49072CA6001684A6922F0010224
:103800004A61202180F83A10704710B590F83A10BC
:10381000222901D0022010BD8168B1F5805F11D04E
:103820000169002901681FD0496801F07F03816A9E
:103830004A1C82620B70C18D491E0904090CC185A6
:1038400018D02BE00269816A002A0268526805D00C
:10385000D2B20A80816A491C8162ECE7C2F3080295
:103860000A80816A891CF7E74A68816A4B1C836277
:103870000A70E0E70168CA6822F02002CA600168A5
:10388000CA6822F48072CA6001684A6922F00102A3
:103890004A61202180F83A10FEF7ECFB002010BDB1
:1038A0002DE9F041044600680169E26821F44051C5
:1038B000114301612169A0680843616908432168D7
:1038C000CA6841F20C639A430243CA6020684169A6
:1038D000A26921F44071114341614C49206864257B
:1038E000322688423CD1FDF77FFD00EBC00101EBA1
:1038F000001061688900B0FBF1F7FDF775FD00EB82
:10390000C00101EB00106168B0468900B0FBF1F026
:10391000B0FBF5F06FF01801484307EB800106EBB0
:103920000110B0FBF5F000F0F006FDF75DFD00EBD7
:10393000C00101EB001061688900B0FBF1F0B0FB41
:10394000F5F006EB0016FDF74FFD00EBC00101EBB3
:10395000001061688900B0FBF1F7FDF745FD3BE021
:10396000FDF732FD00EBC00101EB0010616889003A
:10397000B0FBF1F7FDF728FD00EBC00101EB0010F3
:103980006168B0468900B0FBF1F0B0FBF5F06FF074
:103990001801484307EB800106EB0110B0FBF5F07E
:1039A00000F0F006FDF710FD00EBC00101EB001088
:1039B00061688900B0FBF1F0B0FBF5F006EB001692
:1039C000FDF702FD00EBC00101EB0010616889000A
:1039D000B0FBF1F7FDF7F8FC00EBC00101EB0010C4
:1039E00061688900B0FBF1F0B0FBF5F06FF01801F1
:1039F000484307EB800108EB0110B0FBF5F02168AC
:103A000000F00F0030448860BDE8F08100380140CC
:103A100090F83910212901D0022070478168B1F552
:103A2000805F016A0BD04A1C02620268097851600B
:103A3000C18C491E0904090CC1840ED017E0098805
:103A40000268C1F30801516001690029016A02D0CE
:103A5000491C0162ECE7891CFBE70168CA6822F097
:103A60008002CA600068C16841F04001C160002066
:103A70007047F0B500231C4617E0D2E90456B54262
:103A800001D116889EB910F8017B6E1C16612F704B
:103A9000D2E904565B1C9BB2B54208D0D668B54249
:103AA00001D195681561641CA4B28C42E5D31088DD
:103AB00018441080002082F821008B4202D29088A6
:103AC000401C9080F0BD00000148FEF7EDB90000F9
:103AD0006402002090F82010002912D00388002BE7
:103AE0000FD0002180F8201082894169521A92B2C9
:103AF000934202D843801A4600E042800148FEF714
:103B0000BABA7047640200200E490D480E4A0346B7
:103B1000C1E9000200210180418081803822C280F9
:103B2000A0F13802C0E9022302614261074A8261C2
:103B3000074AC261022280F8202080F821107047D5
:103B4000E80500200001002064020020733A00080C
:103B5000D53A0008FEE7FEE70FB4084B10B504A9FC
:103B600002AA039800F09CF8044602A9002000F085
:103B7000C8FA204610BC5DF814FB000003410008A1
:103B8000490050EAC12018BF04204A0D18BF40F078
:103B9000010040F2FF72B2EB515F08BF40F002003B
:103BA000012808BF052070472DE9F0414F1E00EBAA
:103BB000C7010446D1E9000115461E4637F006024A
:103BC0000DD02A463346FCF776FB7F1E04EBC70375
:103BD000D3E90023FCF7C8FA37F00602F1D1022F2F
:103BE00025D0042F13D0062F18BFBDE8F0812A4638
:103BF0003346FCF760FBD4E90A23FCF7B5FA2A4602
:103C00003346FCF758FBD4E90823FCF7ADFA2A4603
:103C10003346FCF750FBD4E90623FCF7A5FA2A4605
:103C20003346FCF748FBD4E90423FCF79DFA2A4607
:103C30003346FCF740FBD4E90223FCF795FA2A4609
:103C40003346FCF738FBD4E90023BDE8F041FCF72C
:103C50008BBA0122FCF727BD0022134610461146FD
:103C6000FCF79BBB024A00201107FCF71CBD0000BB
:103C700001FDFFFF02E008C8121F08C1002AFAD1A7
:103C800070477047002001E001C1121F002AFBD1DC
:103C900070470000014908607047000030010020B3
:103CA0002DE9FF4F8DB00F460546002606E025287A
:103CB0000BD0DDE90F1290476D1C761C2878002888
:103CC000F5D111B03046BDE8F08F0024A246A146E0
:103CD0000122EC4900E0044315F8013F203B02FAC1
:103CE00003F00842F7D128782A2810D06FF02F026D
:103CF0002878A0F13001092914D80AEB8A0102EBD7
:103D0000410144F0020400EB010A6D1CF0E701CF11
:103D10005FEA000A03D544F40054CAF1000A44F0F3
:103D200002046D1C28782E2817D115F8010F44F0D5
:103D300004042A280ED06FF02F022878A0F1300159
:103D400009290AD809EB890102EB410100EB0109BD
:103D50006D1CF2E757F8049B6D1C28786C280FD077
:103D600006DC4C2817D068280DD06A2814D104E04E
:103D7000742810D07A280FD10DE044F400140AE022
:103D800044F4801401E044F440146978814202D183
:103D900004F580146D1C6D1C2A786E2A1FD00CDC73
:103DA000632A31D004DC002A8BD0582A11D1A3E039
:103DB000642A68D0692A0CD165E0732A2ED004DC0D
:103DC0006F2A73D0702A04D19BE0752A6FD0782AAD
:103DD0006ED01046DDE90F129047761C50E1C4F317
:103DE0000250022806D0032809D0042801CF09D0A8
:103DF000066045E101CFF117C0E9006140E101CF64
:103E000006803DE106703BE117F8040B8DF80000D9
:103E100000208DF80100EB46012003E057F804BBB9
:103E20004FF0FF3061074FF0000102D40DE008F1C0
:103E30000101884649450FDA8045F8DB1BF8081078
:103E40000029F4D108E008F1010188468142FADB3B
:103E50001BF808100029F6D1DDE90F23AAEB0800B2
:103E60008146214600F036F9304400EB080604E0B4
:103E7000DDE90F121BF8010B9047B8F10108F7D2EA
:103E800021464846F7E00A21C4F302534FF0000BE5
:103E90000891022B04D001CFC117032B09D00AE0EF
:103EA000FF1D27F00707F7E8020108E032E01FE0F6
:103EB00020E000B2C117042B01D140B2C117031E8C
:103EC00071F1000307DA4FF0000CD0EB0C006CEB43
:103ED00001012D2302E0230504D52B238DF8243086
:103EE000012303E0E30701D02023F7E7984658E0D9
:103EF0000A2110E010210EE010204FF0000B089076
:103F00000CE010214FF0000B44F004044FF00809BE
:103F1000089103E008214FF0000B0891C4F302530D
:103F2000022B04D001CF0021032B06D006E0FF1D99
:103F300027F00707F7E8020103E080B2042B00D165
:103F4000C0B24FF0000823072BD5702A07D0DDF848
:103F500020C08CF0100C5CEA0B0C05D00EE0402366
:103F60008DF82430012308E050EA010306D0302305
:103F70008DF824308DF8252002239846DDF820C0E6
:103F80008CF0080C5CEA0B0C0BD150EA010301D158
:103F9000630706D530238DF824304FF00108A9F1CE
:103FA0000109582A04D038A20B9208AA0A920BE001
:103FB0003AA2F9E75B46089AFCF7C6FA0B9B9B5CB2
:103FC0000A9A521E0A92137050EA0102F2D10A981C
:103FD000ADEB000000F1200B600702D524F4803423
:103FE00001E04FF00109D94502DDA9EB0B0000E02B
:103FF000002000EB0B0141440890AAEB010AE0030A
:1040000006D4DDE90F232146504600F063F806444C
:104010004FF0000908E009A911F80900DDE90F12C5
:10402000904709F10109761CC145F4DBE0030CD58A
:10403000DDE90F232146504600F04CF8064404E029
:10404000DDE90F1230209047761C0899481E089031
:104050000029F5DC08E00A980A990078491C0A91C1
:10406000DDE90F129047761CBBF10001ABF1010BAB
:10407000F1DC21465046DDE90F2300F019F8064433
:104080006D1C1BE6092801003031323334353637D8
:104090003839616263646566000000003031323394
:1040A0003435363738394142434445460000000034
:1040B0002DE9F041044600251E461746880404D425
:1040C00005E039462020B0476D1C641EF9D528460E
:1040D000BDE8F0812DE9F041044600251E469046DA
:1040E000C80301D5302700E02027880404D505E067
:1040F00041463846B0476D1C641EF9D52846BDE8D8
:10410000F0810A68531C0B60107070472DE9F84F5E
:1041100004460D4621F0004000917349814211DCB4
:104120007249884201DC06D12CB120462946BDE8FF
:10413000F84FFFF78EBD6E48002DCCBF6D496E491C
:10414000BDE8F88F6D49814211DD6D498142D8BFCC
:104150004FF0FF366DDD20462946FFF711FD04289C
:1041600008BFFFF77FFD20462946BDE8F88F654967
:10417000654F25F00045814233DD6449814219DDF8
:10418000002632464FF0804320462946FBF7ECFFDD
:1041900080468A46012220462946FCF784FA0022FE
:1041A0003B46FCF782F842465346FCF7F6F80446D5
:1041B0000D463EE001260022BA463B4620462946EF
:1041C000FBF7D2FF80460F46002253462046294681
:1041D000FCF76BF842463B46FCF7DFF804460D4619
:1041E00027E04B4981421BDDDFF828A1022600228F
:1041F000534620462946FCF75EF800223B46FBF773
:10420000B3FF80460F460022534620462946FCF75E
:104210004CF842463B46FCF7C0F804460D4608E021
:10422000032622462B4600203B49FCF7B6F80446FD
:104230000D4622462B4610461946FCF73CF88B46A5
:10424000824602460B46FCF736F8074602463348DC
:1042500088460B4606217844FFF7A6FC52465B468B
:10426000FCF729F882462E488B463A4643460521FC
:104270007844FFF799FC3A464346FCF71CF802469F
:104280000B46002E504659460CDAFBF76DFF2246CE
:104290002B46FCF710F801B022462B46BDE8F04F44
:1042A000FCF706B8FBF760FF22462B46FCF703F845
:1042B0001C4A7A4402EBC603D3E90023FBF7F5FF5F
:1042C00022462B46FBF7F1FF174A7A4402EBC6035E
:1042D000D3E90023FBF7ECFF009A002AB8BF81F076
:1042E0000041BDE8F88F0000000010440000F07F9E
:1042F000182D4454FB21F93FFB21F9BF0000DC3F9E
:104300000000203E0000F33F0000F03F0000E63FC9
:10431000008003400000F83F0000F0BF4E040000A2
:104320000C040000AA030000720300002DE9F04114
:10433000C1F30A52A2F2FF362F4A304B0D46044613
:10434000142E2FDA002E12DAFBF70EFF002213468E
:10435000FCF7E2F84CD2002DA4BF0024254647DA32
:1043600025F00040204318BF254D41D018E0DFF86C
:1043700094C02CFA06F705EA070C5CEA040C08BFA7
:10438000BDE8F081FBF7F0FE00221346FCF7C4F80D
:104390002ED2002D03DA4FF48010F0400544BD43C7
:1043A000002425E0332EC8BFBDE8F081A6F1140C2F
:1043B0004FF0FF3727FA0CF73C4208BFBDE8F08109
:1043C000FBF776FF00221346FCF7A6F810D2002D6B
:1043D0000DDA142E08BF6D1C09D0C6F1340001217E
:1043E00001FA00F02044A04238BF6D1C0446BC43D3
:1043F00029462046BDE8F0819C7500883CE4377E64
:104400000000F0BFFFFF0F0070B514461D460E46BA
:10441000002814BF01210021314321F00041C1F1E6
:104420007F6101F1E041C90F16D1002C14BF0121B9
:104430000021294321F00041C1F17F6101F1E041F8
:10444000C90F09D11449B1EB460F08BF00281CD091
:10445000690008BF002C18D03146FCF73BF9024632
:1044600040F2FF7030EA11500DD0F017B0EBE17F51
:1044700009D0084665F31E0084460B462046614677
:10448000FBF716FF0246104670BD0120FFF702FC45
:10449000BDE87040FFF7E0BB0000E0FF70470000A0
:1044A000FCF75AFDFEF7B3FCFEF7B6F8FEF782F80C
:1044B000FEF7E6F9FEF70EF9FEF71EFAFEF76AF9C7
:1044C000FEF7A2F9002202211D20FCF7C1FD1D20EC
:1044D000FCF7B2FD002201212520FCF7B9FD2520C3
:1044E000FCF7AAFDDFF88880D8F80000FBF7D5FFBD
:1044F000204EDFF8849032464B46FBF7DCFEFBF79C
:10450000D9FFFEF767FC1D4C0125C0B165602F0681
:10451000D8F80000FBF7C1FF32464B46FBF7CBFE55
:10452000FBF7C8FF6168491C61606168B0FBF1F18D
:10453000B942F7D26168B0FBF1F0FEF74BFC60685E
:10454000A0600E4E00273770FEF7FCF9DFF83080D0
:10455000A0680028FCD16068A060307818B1D8F855
:10456000000008A101603570FEF7B4FB3770EFE77B
:10457000100000207B14AE47E17A743F0000002059
:10458000284600084F76657272756E00014900205A
:10459000704700000000F07F4FF0FF4070470000C0
:1045A00001490020704700000000F0FF00487047FC
:1045B000000080FF01490020704700000000F8FF64
:1045C000004870470000C0FF10B502460B46FBF7DD
:1045D0008BFF01D0012010BD002010BD10B5FFF7EA
:1045E000E9FF0A4CC4E90801FFF7EAFFA060FFF702
:1045F000CDFFC4E90401FFF7CFFF2060FFF7D0FF34
:10460000C4E90601FFF7D2FF606010BD0801002079
:104610000000000000000000010203040607080972
:104620000000000001020304E800002075313D2075
:104630002535642C75323D202535640000000000CE
:104640004FBB610567ACDD3F182D4454FB21E93FAA
:104650009BF681D20B73EF3F182D4454FB21F93F99
:10466000E2652F227F2B7A3C075C143326A6813C1F
:10467000BDCBF07A8807703C075C143326A6913CCA
:10468000C4EB98999999C9BF711623FEC671BCBF36
:104690006D9A74AFF2B0B3BF9AFDDE522DDEADBF9E
:1046A0002F6C6A2C44B4A2BF0D5555555555D53FB6
:1046B000FF8300922449C23F6E204CC5CD45B73FD1
:1046C000513DD0A0660DB13FEB0D76244B7BA93F49
:1046D00011DA22E33AAD903FF846000800000020CE
:1046E000340100008007000808470008340100205A
:1046F000DC080000843C0008514201920104DDA264
:084700004A0402440A00000013
:04000005080000ED02
:00000001FF
